{
  "contractName": "ContractV1Lib",
  "abi": [
    {
      "constant": true,
      "inputs": [
        {
          "name": "self",
          "type": "UniversalStorage"
        },
        {
          "name": "_account",
          "type": "address"
        }
      ],
      "name": "getBalance",
      "outputs": [
        {
          "name": "",
          "type": "uint256"
        }
      ],
      "payable": false,
      "stateMutability": "view",
      "type": "function"
    },
    {
      "constant": true,
      "inputs": [
        {
          "name": "self",
          "type": "UniversalStorage"
        },
        {
          "name": "_account",
          "type": "address"
        },
        {
          "name": "_spender",
          "type": "address"
        }
      ],
      "name": "getAllowance",
      "outputs": [
        {
          "name": "",
          "type": "uint256"
        }
      ],
      "payable": false,
      "stateMutability": "view",
      "type": "function"
    },
    {
      "constant": true,
      "inputs": [
        {
          "name": "self",
          "type": "UniversalStorage"
        }
      ],
      "name": "getTotalSupply",
      "outputs": [
        {
          "name": "",
          "type": "uint256"
        }
      ],
      "payable": false,
      "stateMutability": "view",
      "type": "function"
    }
  ],
  "bytecode": "0x6060604052341561000f57600080fd5b6104ff8061001e6000396000f300606060405260043610610057576000357c0100000000000000000000000000000000000000000000000000000000900463ffffffff1680636aa711751461005c578063b1e407b3146100dc578063b4788a4e1461011e575b600080fd5b6100c6600480803573ffffffffffffffffffffffffffffffffffffffff1690602001909190803573ffffffffffffffffffffffffffffffffffffffff1690602001909190803573ffffffffffffffffffffffffffffffffffffffff1690602001909190505061017f565b6040518082815260200191505060405180910390f35b610108600480803573ffffffffffffffffffffffffffffffffffffffff169060200190919050506102df565b6040518082815260200191505060405180910390f35b610169600480803573ffffffffffffffffffffffffffffffffffffffff1690602001909190803573ffffffffffffffffffffffffffffffffffffffff169060200190919050506103b7565b6040518082815260200191505060405180910390f35b60008373ffffffffffffffffffffffffffffffffffffffff166333598b00848460405180807f616c6c6f77616e636500000000000000000000000000000000000000000000008152506009018373ffffffffffffffffffffffffffffffffffffffff1673ffffffffffffffffffffffffffffffffffffffff166c010000000000000000000000000281526014018273ffffffffffffffffffffffffffffffffffffffff1673ffffffffffffffffffffffffffffffffffffffff166c010000000000000000000000000281526014019250505060405180910390206000604051602001526040518263ffffffff167c0100000000000000000000000000000000000000000000000000000000028152600401808260001916600019168152602001915050602060405180830381600087803b15156102bb57600080fd5b6102c65a03f115156102cc57600080fd5b5050506040518051905090509392505050565b60008173ffffffffffffffffffffffffffffffffffffffff166333598b0060405180807f746f74616c5f737570706c790000000000000000000000000000000000000000815250600c01905060405180910390206000604051602001526040518263ffffffff167c0100000000000000000000000000000000000000000000000000000000028152600401808260001916600019168152602001915050602060405180830381600087803b151561039557600080fd5b6102c65a03f115156103a657600080fd5b505050604051805190509050919050565b60008273ffffffffffffffffffffffffffffffffffffffff166333598b008360405180807f62616c616e6365730000000000000000000000000000000000000000000000008152506008018273ffffffffffffffffffffffffffffffffffffffff1673ffffffffffffffffffffffffffffffffffffffff166c0100000000000000000000000002815260140191505060405180910390206000604051602001526040518263ffffffff167c0100000000000000000000000000000000000000000000000000000000028152600401808260001916600019168152602001915050602060405180830381600087803b15156104b057600080fd5b6102c65a03f115156104c157600080fd5b505050604051805190509050929150505600a165627a7a723058204d28566094aab541f2e991340ec2ce6e9f2bcc62b5690b54e3e44818c1aec7170029",
  "source": "pragma solidity ^0.4.18;\r\n\r\nimport \"../utils/universal_storage/UniversalStorage.sol\";\r\nimport \"../ContractStorage.sol\";\r\n\r\n\r\nlibrary ContractV1Lib {\r\n\r\n    function getBalance(UniversalStorage self, address _account) public view returns (uint256) {\r\n        return self.getUint256(keccak256(\"balances\", _account));\r\n    }\r\n\r\n    function getAllowance(UniversalStorage self, address _account, address _spender) public view returns (uint256) {\r\n        return self.getUint256(keccak256(\"allowance\", _account, _spender));\r\n    }\r\n\r\n    function getTotalSupply(UniversalStorage self) public view returns (uint256) {\r\n        return self.getUint256(keccak256(\"total_supply\"));\r\n    }\r\n    \r\n}",
  "sourcePath": "D:\\task1\\EIP20\\contracts\\V1\\ContractV1Lib.sol",
  "compiler": {
    "name": "solc",
    "version": "0.4.19+commit.c4cbbb05.Emscripten.clang"
  },
  "schemaVersion": "2.0.0",
  "updatedAt": "2018-04-13T02:26:18.029Z"
}