{
  "contractName": "ContractV1",
  "abi": [
    {
      "anonymous": false,
      "inputs": [
        {
          "indexed": true,
          "name": "_from",
          "type": "address"
        },
        {
          "indexed": true,
          "name": "_to",
          "type": "address"
        },
        {
          "indexed": false,
          "name": "_value",
          "type": "uint256"
        }
      ],
      "name": "Transfer",
      "type": "event"
    },
    {
      "anonymous": false,
      "inputs": [
        {
          "indexed": true,
          "name": "_account",
          "type": "address"
        },
        {
          "indexed": true,
          "name": "_spender",
          "type": "address"
        },
        {
          "indexed": false,
          "name": "_value",
          "type": "uint256"
        }
      ],
      "name": "Approval",
      "type": "event"
    },
    {
      "constant": false,
      "inputs": [
        {
          "name": "_to",
          "type": "address"
        },
        {
          "name": "_value",
          "type": "uint256"
        }
      ],
      "name": "transfer",
      "outputs": [
        {
          "name": "success",
          "type": "bool"
        }
      ],
      "payable": false,
      "stateMutability": "nonpayable",
      "type": "function"
    },
    {
      "constant": false,
      "inputs": [
        {
          "name": "_spender",
          "type": "address"
        },
        {
          "name": "_value",
          "type": "uint256"
        }
      ],
      "name": "approve",
      "outputs": [
        {
          "name": "success",
          "type": "bool"
        }
      ],
      "payable": false,
      "stateMutability": "nonpayable",
      "type": "function"
    },
    {
      "constant": false,
      "inputs": [
        {
          "name": "_from",
          "type": "address"
        },
        {
          "name": "_to",
          "type": "address"
        },
        {
          "name": "_value",
          "type": "uint256"
        }
      ],
      "name": "transferFrom",
      "outputs": [
        {
          "name": "success",
          "type": "bool"
        }
      ],
      "payable": false,
      "stateMutability": "nonpayable",
      "type": "function"
    },
    {
      "constant": false,
      "inputs": [],
      "name": "claimInitialSupply",
      "outputs": [],
      "payable": false,
      "stateMutability": "nonpayable",
      "type": "function"
    },
    {
      "constant": true,
      "inputs": [
        {
          "name": "_account",
          "type": "address"
        }
      ],
      "name": "balanceOf",
      "outputs": [
        {
          "name": "balance",
          "type": "uint256"
        }
      ],
      "payable": false,
      "stateMutability": "view",
      "type": "function"
    },
    {
      "constant": true,
      "inputs": [
        {
          "name": "_account",
          "type": "address"
        },
        {
          "name": "_spender",
          "type": "address"
        }
      ],
      "name": "getAllowance",
      "outputs": [
        {
          "name": "remaining",
          "type": "uint256"
        }
      ],
      "payable": false,
      "stateMutability": "view",
      "type": "function"
    },
    {
      "constant": true,
      "inputs": [],
      "name": "totalSupplyOf",
      "outputs": [
        {
          "name": "totalSupply",
          "type": "uint256"
        }
      ],
      "payable": false,
      "stateMutability": "view",
      "type": "function"
    }
  ],
  "bytecode": "0x6060604052341561000f57600080fd5b6113d68061001e6000396000f300606060405260043610610083576000357c0100000000000000000000000000000000000000000000000000000000900463ffffffff168063095ea7b3146100885780630a249cff146100e25780630af4187d146100f757806323b872dd1461016357806370a08231146101dc578063a9059cbb14610229578063f8482f9e14610283575b600080fd5b341561009357600080fd5b6100c8600480803573ffffffffffffffffffffffffffffffffffffffff169060200190919080359060200190919050506102ac565b604051808215151515815260200191505060405180910390f35b34156100ed57600080fd5b6100f5610328565b005b341561010257600080fd5b61014d600480803573ffffffffffffffffffffffffffffffffffffffff1690602001909190803573ffffffffffffffffffffffffffffffffffffffff16906020019091905050610552565b6040518082815260200191505060405180910390f35b341561016e57600080fd5b6101c2600480803573ffffffffffffffffffffffffffffffffffffffff1690602001909190803573ffffffffffffffffffffffffffffffffffffffff1690602001909190803590602001909190505061069f565b604051808215151515815260200191505060405180910390f35b34156101e757600080fd5b610213600480803573ffffffffffffffffffffffffffffffffffffffff1690602001909190505061083e565b6040518082815260200191505060405180910390f35b341561023457600080fd5b610269600480803573ffffffffffffffffffffffffffffffffffffffff16906020019091908035906020019091905050610956565b604051808215151515815260200191505060405180910390f35b341561028e57600080fd5b610296610add565b6040518082815260200191505060405180910390f35b60006102b9338484610bbf565b8273ffffffffffffffffffffffffffffffffffffffff163373ffffffffffffffffffffffffffffffffffffffff167f8c5be1e5ebec7d5bd14f71427d1e84f3dd0314c0f7b2291e5b200ac8c7c3b925846040518082815260200191505060405180910390a36001905092915050565b60008060009054906101000a900473ffffffffffffffffffffffffffffffffffffffff1673ffffffffffffffffffffffffffffffffffffffff166321f8a72160405180807f6f776e6572000000000000000000000000000000000000000000000000000000815250600501905060405180910390206000604051602001526040518263ffffffff167c0100000000000000000000000000000000000000000000000000000000028152600401808260001916600019168152602001915050602060405180830381600087803b15156103ff57600080fd5b6102c65a03f1151561041057600080fd5b5050506040518051905073ffffffffffffffffffffffffffffffffffffffff163373ffffffffffffffffffffffffffffffffffffffff1614151561045357600080fd5b6000809054906101000a900473ffffffffffffffffffffffffffffffffffffffff1673ffffffffffffffffffffffffffffffffffffffff166333598b0060405180807f746f74616c5f737570706c790000000000000000000000000000000000000000815250600c01905060405180910390206000604051602001526040518263ffffffff167c0100000000000000000000000000000000000000000000000000000000028152600401808260001916600019168152602001915050602060405180830381600087803b151561052857600080fd5b6102c65a03f1151561053957600080fd5b50505060405180519050905061054f3382610d32565b50565b600073__ContractV1Lib_________________________636aa711756000809054906101000a900473ffffffffffffffffffffffffffffffffffffffff1685856000604051602001526040518463ffffffff167c0100000000000000000000000000000000000000000000000000000000028152600401808473ffffffffffffffffffffffffffffffffffffffff1673ffffffffffffffffffffffffffffffffffffffff1681526020018373ffffffffffffffffffffffffffffffffffffffff1673ffffffffffffffffffffffffffffffffffffffff1681526020018273ffffffffffffffffffffffffffffffffffffffff1673ffffffffffffffffffffffffffffffffffffffff168152602001935050505060206040518083038186803b151561067c57600080fd5b6102c65a03f4151561068d57600080fd5b50505060405180519050905092915050565b6000806106ac8533610552565b9050600073ffffffffffffffffffffffffffffffffffffffff168473ffffffffffffffffffffffffffffffffffffffff16141515156106ea57600080fd5b6106f38561083e565b83111580156107025750808311155b151561070d57600080fd5b6000831415610784578373ffffffffffffffffffffffffffffffffffffffff168573ffffffffffffffffffffffffffffffffffffffff167fddf252ad1be2c89b69c2b068fc378daa952ba7f163c4a11628f55a4df523b3ef856040518082815260200191505060405180910390a360019150610836565b61078e8584610e61565b6107988484611012565b7fffffffffffffffffffffffffffffffffffffffffffffffffffffffffffffffff8110156107cc576107cb8533856111c3565b5b8373ffffffffffffffffffffffffffffffffffffffff168573ffffffffffffffffffffffffffffffffffffffff167fddf252ad1be2c89b69c2b068fc378daa952ba7f163c4a11628f55a4df523b3ef856040518082815260200191505060405180910390a3600191505b509392505050565b600073__ContractV1Lib_________________________63b4788a4e6000809054906101000a900473ffffffffffffffffffffffffffffffffffffffff16846000604051602001526040518363ffffffff167c0100000000000000000000000000000000000000000000000000000000028152600401808373ffffffffffffffffffffffffffffffffffffffff1673ffffffffffffffffffffffffffffffffffffffff1681526020018273ffffffffffffffffffffffffffffffffffffffff1673ffffffffffffffffffffffffffffffffffffffff1681526020019250505060206040518083038186803b151561093457600080fd5b6102c65a03f4151561094557600080fd5b505050604051805190509050919050565b60008073ffffffffffffffffffffffffffffffffffffffff168373ffffffffffffffffffffffffffffffffffffffff16141580156109c057503373ffffffffffffffffffffffffffffffffffffffff168373ffffffffffffffffffffffffffffffffffffffff1614155b15156109cb57600080fd5b6109d43361083e565b82111515156109e257600080fd5b6000821415610a59578273ffffffffffffffffffffffffffffffffffffffff163373ffffffffffffffffffffffffffffffffffffffff167fddf252ad1be2c89b69c2b068fc378daa952ba7f163c4a11628f55a4df523b3ef846040518082815260200191505060405180910390a360019050610ad7565b610a633383610e61565b610a6d8383611012565b8273ffffffffffffffffffffffffffffffffffffffff163373ffffffffffffffffffffffffffffffffffffffff167fddf252ad1be2c89b69c2b068fc378daa952ba7f163c4a11628f55a4df523b3ef846040518082815260200191505060405180910390a3600190505b92915050565b600073__ContractV1Lib_________________________63b1e407b36000809054906101000a900473ffffffffffffffffffffffffffffffffffffffff166000604051602001526040518263ffffffff167c0100000000000000000000000000000000000000000000000000000000028152600401808273ffffffffffffffffffffffffffffffffffffffff1673ffffffffffffffffffffffffffffffffffffffff16815260200191505060206040518083038186803b1515610b9f57600080fd5b6102c65a03f41515610bb057600080fd5b50505060405180519050905090565b6000809054906101000a900473ffffffffffffffffffffffffffffffffffffffff1673ffffffffffffffffffffffffffffffffffffffff16634f3029c2848460405180807f616c6c6f77616e636500000000000000000000000000000000000000000000008152506009018373ffffffffffffffffffffffffffffffffffffffff1673ffffffffffffffffffffffffffffffffffffffff166c010000000000000000000000000281526014018273ffffffffffffffffffffffffffffffffffffffff1673ffffffffffffffffffffffffffffffffffffffff166c01000000000000000000000000028152601401925050506040518091039020836040518363ffffffff167c010000000000000000000000000000000000000000000000000000000002815260040180836000191660001916815260200182815260200192505050600060405180830381600087803b1515610d1957600080fd5b6102c65a03f11515610d2a57600080fd5b505050505050565b6000809054906101000a900473ffffffffffffffffffffffffffffffffffffffff1673ffffffffffffffffffffffffffffffffffffffff16634f3029c28360405180807f62616c616e6365730000000000000000000000000000000000000000000000008152506008018273ffffffffffffffffffffffffffffffffffffffff1673ffffffffffffffffffffffffffffffffffffffff166c010000000000000000000000000281526014019150506040518091039020836040518363ffffffff167c010000000000000000000000000000000000000000000000000000000002815260040180836000191660001916815260200182815260200192505050600060405180830381600087803b1515610e4957600080fd5b6102c65a03f11515610e5a57600080fd5b5050505050565b61100e8273__DSMathLib_____________________________63237f793b73__ContractV1Lib_________________________63b4788a4e6000809054906101000a900473ffffffffffffffffffffffffffffffffffffffff16886000604051602001526040518363ffffffff167c0100000000000000000000000000000000000000000000000000000000028152600401808373ffffffffffffffffffffffffffffffffffffffff1673ffffffffffffffffffffffffffffffffffffffff1681526020018273ffffffffffffffffffffffffffffffffffffffff1673ffffffffffffffffffffffffffffffffffffffff1681526020019250505060206040518083038186803b1515610f7357600080fd5b6102c65a03f41515610f8457600080fd5b50505060405180519050856000604051602001526040518363ffffffff167c0100000000000000000000000000000000000000000000000000000000028152600401808381526020018281526020019250505060206040518083038186803b1515610fee57600080fd5b6102c65a03f41515610fff57600080fd5b50505060405180519050610d32565b5050565b6111bf8273__DSMathLib_____________________________63714c177673__ContractV1Lib_________________________63b4788a4e6000809054906101000a900473ffffffffffffffffffffffffffffffffffffffff16886000604051602001526040518363ffffffff167c0100000000000000000000000000000000000000000000000000000000028152600401808373ffffffffffffffffffffffffffffffffffffffff1673ffffffffffffffffffffffffffffffffffffffff1681526020018273ffffffffffffffffffffffffffffffffffffffff1673ffffffffffffffffffffffffffffffffffffffff1681526020019250505060206040518083038186803b151561112457600080fd5b6102c65a03f4151561113557600080fd5b50505060405180519050856000604051602001526040518363ffffffff167c0100000000000000000000000000000000000000000000000000000000028152600401808381526020018281526020019250505060206040518083038186803b151561119f57600080fd5b6102c65a03f415156111b057600080fd5b50505060405180519050610d32565b5050565b6113a5838373__DSMathLib_____________________________63237f793b73__ContractV1Lib_________________________636aa711756000809054906101000a900473ffffffffffffffffffffffffffffffffffffffff168a8a6000604051602001526040518463ffffffff167c0100000000000000000000000000000000000000000000000000000000028152600401808473ffffffffffffffffffffffffffffffffffffffff1673ffffffffffffffffffffffffffffffffffffffff1681526020018373ffffffffffffffffffffffffffffffffffffffff1673ffffffffffffffffffffffffffffffffffffffff1681526020018273ffffffffffffffffffffffffffffffffffffffff1673ffffffffffffffffffffffffffffffffffffffff168152602001935050505060206040518083038186803b151561130a57600080fd5b6102c65a03f4151561131b57600080fd5b50505060405180519050866000604051602001526040518363ffffffff167c0100000000000000000000000000000000000000000000000000000000028152600401808381526020018281526020019250505060206040518083038186803b151561138557600080fd5b6102c65a03f4151561139657600080fd5b50505060405180519050610bbf565b5050505600a165627a7a72305820cc8de2840e8a179190e9b857c4941fe53a712b7074509d00d503dba86321434d0029",
  "source": "/*\r\nImplements EIP20 token standard: https://github.com/ethereum/EIPs/blob/master/EIPS/eip-20.md, as a Proxy design pattern\r\n.*/\r\n\r\npragma solidity ^0.4.18;\r\n\r\nimport \"../EIP20Interface.sol\";\r\nimport \"../libs/DSMathLib.sol\";\r\nimport \"./ContractV1Lib.sol\";\r\nimport \"../utils/universal_storage/UniversalStorageStateful.sol\";\r\nimport \"../ContractStorageStateful.sol\";\r\n\r\n\r\ncontract ContractV1 is UniversalStorageStateful, ContractStorageStateful, EIP20Interface{\r\n\r\n    // description in EIP20Interface.sol\r\n    function transfer(address _to, uint256 _value) public returns (bool success) {\r\n        require(_to != address(0) && _to != msg.sender); // cannot send to null address or self\r\n        require(_value <= balanceOf(msg.sender)); // msg.sender must have enough funds to cover _value\r\n        \r\n        if (_value == 0) {  // if transfer _value is 0 just log the event\r\n            Transfer(msg.sender, _to, _value);\r\n            return true;\r\n        }\r\n\r\n        subBalance(msg.sender, _value); // subtract tokens from msg.sender\r\n        addBalance(_to, _value);        // add tokens to _to\r\n        \r\n        Transfer(msg.sender, _to, _value); // Log the event\r\n        \r\n        return true; // return success == true\r\n    }\r\n\r\n    function approve(address _spender, uint256 _value) public returns (bool success) {\r\n        setAllowance(msg.sender, _spender, _value); // msg.sender approves _spender to transfer up to _value on their behalf\r\n\r\n        Approval(msg.sender, _spender, _value); // Log the approval event\r\n        \r\n        return true;\r\n    }\r\n\r\n    function transferFrom(address _from, address _to, uint256 _value) public returns (bool success) {\r\n        uint256 allowance = getAllowance(_from, msg.sender); // get the allowed amount for msg.sender approved by _from\r\n        require(_to != address(0)); // cannot send to null address\r\n        require(_value <= balanceOf(_from) && _value <= allowance); // check that _value is less than or equal to _from's balance and _value is less than or equal to allowance\r\n\r\n        if (_value == 0) { // if transfer _value is 0 just log the event\r\n          Transfer(_from, _to, _value);\r\n            return true;\r\n        }\r\n\r\n        subBalance(_from,_value);  // subtract tokens from _from\r\n        addBalance(_to,_value);    // add tokens to _to\r\n\r\n        if (allowance < 2**256 - 1) { // if the original allowance does not overflow uint256, reduce the allowance assigned to sender by _value\r\n            subAllowance(_from, msg.sender, _value);\r\n        }\r\n\r\n        Transfer(_from, _to, _value); // Log the transfer event\r\n\r\n        return true;\r\n    }\r\n\r\n    // not included in ERC-20 interface definition\r\n    function claimInitialSupply() public {\r\n        require(msg.sender == _ustorage.getAddress(keccak256(\"owner\"))); // only the owner can claim the initial supply of tokens\r\n        uint256 initialAmount = _ustorage.getUint256(keccak256(\"total_supply\"));\r\n        setBalance(msg.sender, initialAmount);\r\n    }\r\n\r\n\r\n    // getters\r\n    function balanceOf(address _account) public view returns (uint256 balance) {\r\n        return ContractV1Lib.getBalance(_ustorage, _account); // ContractV1Lib call\r\n    }\r\n\r\n    function getAllowance(address _account, address _spender) public view returns (uint256 remaining) {\r\n        return ContractV1Lib.getAllowance(_ustorage, _account, _spender); // ContractV1Lib call\r\n    }   \r\n\r\n    function totalSupplyOf() public view returns (uint256 totalSupply) {\r\n        return ContractV1Lib.getTotalSupply(_ustorage);\r\n    }\r\n\r\n    // manipulators\r\n    function addBalance(address _account, uint256 _value) internal {\r\n        setBalance(_account, DSMathLib.dsadd(ContractV1Lib.getBalance(_ustorage, _account), _value)); // DSMathLib call\r\n    }\r\n\r\n    function subBalance(address _account, uint256 _value) internal {\r\n        setBalance(_account, DSMathLib.dssub(ContractV1Lib.getBalance(_ustorage, _account), _value));\r\n    }\r\n\r\n    function subAllowance(address _account, address _spender, uint256 _value) internal {\r\n        setAllowance(_account, _spender, DSMathLib.dssub(ContractV1Lib.getAllowance(_ustorage, _account, _spender), _value));\r\n    }\r\n\r\n    // setters\r\n    function setBalance(address _account, uint256 _value) internal {\r\n        _ustorage.setUint256(keccak256(\"balances\", _account), _value);\r\n    }\r\n\r\n    function setAllowance(address _account, address _spender, uint256 _value) internal {\r\n        _ustorage.setUint256(keccak256(\"allowance\", _account, _spender), _value);\r\n    }\r\n\r\n}       ",
  "sourcePath": "D:\\task1\\EIP20\\contracts\\V1\\ContractV1.sol",
  "compiler": {
    "name": "solc",
    "version": "0.4.19+commit.c4cbbb05.Emscripten.clang"
  },
  "schemaVersion": "2.0.0",
  "updatedAt": "2018-04-13T02:26:17.582Z"
}