{
  "contractName": "ContractV2Lib",
  "abi": [
    {
      "constant": true,
      "inputs": [
        {
          "name": "self",
          "type": "UniversalStorage"
        },
        {
          "name": "_account",
          "type": "address"
        }
      ],
      "name": "getBalance",
      "outputs": [
        {
          "name": "",
          "type": "uint256"
        }
      ],
      "payable": false,
      "stateMutability": "view",
      "type": "function"
    },
    {
      "constant": true,
      "inputs": [
        {
          "name": "self",
          "type": "UniversalStorage"
        },
        {
          "name": "_account",
          "type": "address"
        },
        {
          "name": "_spender",
          "type": "address"
        }
      ],
      "name": "getAllowance",
      "outputs": [
        {
          "name": "",
          "type": "uint256"
        }
      ],
      "payable": false,
      "stateMutability": "view",
      "type": "function"
    }
  ],
  "bytecode": "0x6060604052341561000f57600080fd5b6103da8061001e6000396000f30060606040526004361061004c576000357c0100000000000000000000000000000000000000000000000000000000900463ffffffff1680636aa7117514610051578063b4788a4e146100d1575b600080fd5b6100bb600480803573ffffffffffffffffffffffffffffffffffffffff1690602001909190803573ffffffffffffffffffffffffffffffffffffffff1690602001909190803573ffffffffffffffffffffffffffffffffffffffff16906020019091905050610132565b6040518082815260200191505060405180910390f35b61011c600480803573ffffffffffffffffffffffffffffffffffffffff1690602001909190803573ffffffffffffffffffffffffffffffffffffffff16906020019091905050610292565b6040518082815260200191505060405180910390f35b60008373ffffffffffffffffffffffffffffffffffffffff166333598b00848460405180807f616c6c6f77616e636500000000000000000000000000000000000000000000008152506009018373ffffffffffffffffffffffffffffffffffffffff1673ffffffffffffffffffffffffffffffffffffffff166c010000000000000000000000000281526014018273ffffffffffffffffffffffffffffffffffffffff1673ffffffffffffffffffffffffffffffffffffffff166c010000000000000000000000000281526014019250505060405180910390206000604051602001526040518263ffffffff167c0100000000000000000000000000000000000000000000000000000000028152600401808260001916600019168152602001915050602060405180830381600087803b151561026e57600080fd5b6102c65a03f1151561027f57600080fd5b5050506040518051905090509392505050565b60008273ffffffffffffffffffffffffffffffffffffffff166333598b008360405180807f62616c616e6365730000000000000000000000000000000000000000000000008152506008018273ffffffffffffffffffffffffffffffffffffffff1673ffffffffffffffffffffffffffffffffffffffff166c0100000000000000000000000002815260140191505060405180910390206000604051602001526040518263ffffffff167c0100000000000000000000000000000000000000000000000000000000028152600401808260001916600019168152602001915050602060405180830381600087803b151561038b57600080fd5b6102c65a03f1151561039c57600080fd5b505050604051805190509050929150505600a165627a7a72305820e3f5ef9d628947fd2310ddcb0cd1cd8665aa4650f5b82312ac844f296d62faa40029",
  "source": "pragma solidity ^0.4.18;\r\n\r\nimport \"../utils/universal_storage/UniversalStorage.sol\";\r\nimport \"../ContractStorage.sol\";\r\n\r\nlibrary ContractV2Lib {\r\n\r\n    function getBalance(UniversalStorage self, address _account) public view returns (uint256) {\r\n        return self.getUint256(keccak256(\"balances\", _account));\r\n    }\r\n\r\n    function getAllowance(UniversalStorage self, address _account, address _spender) public view returns (uint256) {\r\n        return self.getUint256(keccak256(\"allowance\", _account, _spender));\r\n    }\r\n\r\n}",
  "sourcePath": "D:\\task1\\EIP20\\contracts\\V2\\ContractV2Lib.sol",
  "compiler": {
    "name": "solc",
    "version": "0.4.19+commit.c4cbbb05.Emscripten.clang"
  },
  "schemaVersion": "2.0.0",
  "updatedAt": "2018-04-12T06:32:07.529Z"
}