{
  "contractName": "Contract",
  "abi": [
    {
      "constant": true,
      "inputs": [],
      "name": "getVersion",
      "outputs": [
        {
          "name": "",
          "type": "uint256"
        }
      ],
      "payable": false,
      "stateMutability": "view",
      "type": "function"
    },
    {
      "constant": false,
      "inputs": [
        {
          "name": "_impl",
          "type": "address"
        }
      ],
      "name": "upgradeTo",
      "outputs": [],
      "payable": false,
      "stateMutability": "nonpayable",
      "type": "function"
    },
    {
      "constant": true,
      "inputs": [],
      "name": "getImplementation",
      "outputs": [
        {
          "name": "",
          "type": "address"
        }
      ],
      "payable": false,
      "stateMutability": "view",
      "type": "function"
    },
    {
      "constant": false,
      "inputs": [
        {
          "name": "_newOwner",
          "type": "address"
        }
      ],
      "name": "transferOwnership",
      "outputs": [],
      "payable": false,
      "stateMutability": "nonpayable",
      "type": "function"
    },
    {
      "inputs": [
        {
          "name": "ustorage_",
          "type": "address"
        },
        {
          "name": "lstorage_",
          "type": "address"
        },
        {
          "name": "_initialAmount",
          "type": "uint256"
        }
      ],
      "payable": false,
      "stateMutability": "nonpayable",
      "type": "constructor"
    },
    {
      "payable": true,
      "stateMutability": "payable",
      "type": "fallback"
    },
    {
      "anonymous": false,
      "inputs": [
        {
          "indexed": true,
          "name": "implementation",
          "type": "address"
        },
        {
          "indexed": false,
          "name": "version",
          "type": "uint256"
        }
      ],
      "name": "Upgraded",
      "type": "event"
    },
    {
      "anonymous": false,
      "inputs": [
        {
          "indexed": true,
          "name": "previousOwner",
          "type": "address"
        },
        {
          "indexed": true,
          "name": "newOwner",
          "type": "address"
        }
      ],
      "name": "OwnershipTransferred",
      "type": "event"
    }
  ],
  "bytecode": "0x6060604052341561000f57600080fd5b604051606080610fb5833981016040528080519060200190919080519060200190919080519060200190919050508183806000806101000a81548173ffffffffffffffffffffffffffffffffffffffff021916908373ffffffffffffffffffffffffffffffffffffffff1602179055505080600160006101000a81548173ffffffffffffffffffffffffffffffffffffffff021916908373ffffffffffffffffffffffffffffffffffffffff160217905550506000809054906101000a900473ffffffffffffffffffffffffffffffffffffffff1673ffffffffffffffffffffffffffffffffffffffff1663ca446dd960405180807f6f776e657200000000000000000000000000000000000000000000000000000081525060050190506040518091039020336040518363ffffffff167c01000000000000000000000000000000000000000000000000000000000281526004018083600019166000191681526020018273ffffffffffffffffffffffffffffffffffffffff1673ffffffffffffffffffffffffffffffffffffffff16815260200192505050600060405180830381600087803b15156101c257600080fd5b6102c65a03f115156101d357600080fd5b5050508273ffffffffffffffffffffffffffffffffffffffff16636e89955060405180807f6e616d6500000000000000000000000000000000000000000000000000000000815250600401905060405180910390206040518263ffffffff167c010000000000000000000000000000000000000000000000000000000002815260040180826000191660001916815260200180602001828103825260088152602001807f436f6e747261637400000000000000000000000000000000000000000000000081525060200192505050600060405180830381600087803b15156102ba57600080fd5b6102c65a03f115156102cb57600080fd5b5050508273ffffffffffffffffffffffffffffffffffffffff16634f3029c260405180807f746f74616c5f737570706c790000000000000000000000000000000000000000815250600c0190506040518091039020836040518363ffffffff167c010000000000000000000000000000000000000000000000000000000002815260040180836000191660001916815260200182815260200192505050600060405180830381600087803b151561038157600080fd5b6102c65a03f1151561039257600080fd5b505050505050610c0e806103a76000396000f300606060405260043610610062576000357c0100000000000000000000000000000000000000000000000000000000900463ffffffff1680630d8e6e2c1461010e5780633659cfe614610137578063aaf10f4214610170578063f2fde38b146101c5575b600061006c610bce565b6100746101fe565b9150600073ffffffffffffffffffffffffffffffffffffffff168273ffffffffffffffffffffffffffffffffffffffff16141515156100b257600080fd5b6000368080601f0160208091040260200160405190810160405280939291908181526020018383808284378201915050505050509050600080825160208401855af43d604051816000823e826000811461010a578282f35b8282fd5b341561011957600080fd5b6101216102f5565b6040518082815260200191505060405180910390f35b341561014257600080fd5b61016e600480803573ffffffffffffffffffffffffffffffffffffffff169060200190919050506103ec565b005b341561017b57600080fd5b6101836101fe565b604051808273ffffffffffffffffffffffffffffffffffffffff1673ffffffffffffffffffffffffffffffffffffffff16815260200191505060405180910390f35b34156101d057600080fd5b6101fc600480803573ffffffffffffffffffffffffffffffffffffffff1690602001909190505061090f565b005b60008060009054906101000a900473ffffffffffffffffffffffffffffffffffffffff1673ffffffffffffffffffffffffffffffffffffffff166321f8a72160405180807f63757272656e745f696d706c656d656e746174696f6e00000000000000000000815250601601905060405180910390206000604051602001526040518263ffffffff167c0100000000000000000000000000000000000000000000000000000000028152600401808260001916600019168152602001915050602060405180830381600087803b15156102d557600080fd5b6102c65a03f115156102e657600080fd5b50505060405180519050905090565b60008060009054906101000a900473ffffffffffffffffffffffffffffffffffffffff1673ffffffffffffffffffffffffffffffffffffffff166333598b0060405180807f63757272656e745f76657273696f6e0000000000000000000000000000000000815250600f01905060405180910390206000604051602001526040518263ffffffff167c0100000000000000000000000000000000000000000000000000000000028152600401808260001916600019168152602001915050602060405180830381600087803b15156103cc57600080fd5b6102c65a03f115156103dd57600080fd5b50505060405180519050905090565b60008060008060009054906101000a900473ffffffffffffffffffffffffffffffffffffffff1673ffffffffffffffffffffffffffffffffffffffff166321f8a72160405180807f6f776e6572000000000000000000000000000000000000000000000000000000815250600501905060405180910390206000604051602001526040518263ffffffff167c0100000000000000000000000000000000000000000000000000000000028152600401808260001916600019168152602001915050602060405180830381600087803b15156104c657600080fd5b6102c65a03f115156104d757600080fd5b5050506040518051905090508073ffffffffffffffffffffffffffffffffffffffff163373ffffffffffffffffffffffffffffffffffffffff1614151561051d57600080fd5b6000809054906101000a900473ffffffffffffffffffffffffffffffffffffffff1673ffffffffffffffffffffffffffffffffffffffff166333598b008560405180807f76657273696f6e000000000000000000000000000000000000000000000000008152506007018273ffffffffffffffffffffffffffffffffffffffff1673ffffffffffffffffffffffffffffffffffffffff166c0100000000000000000000000002815260140191505060405180910390206000604051602001526040518263ffffffff167c0100000000000000000000000000000000000000000000000000000000028152600401808260001916600019168152602001915050602060405180830381600087803b151561063557600080fd5b6102c65a03f1151561064657600080fd5b50505060405180519050925060008314151561066157600080fd5b6000809054906101000a900473ffffffffffffffffffffffffffffffffffffffff1673ffffffffffffffffffffffffffffffffffffffff1663ca446dd960405180807f63757272656e745f696d706c656d656e746174696f6e0000000000000000000081525060160190506040518091039020866040518363ffffffff167c01000000000000000000000000000000000000000000000000000000000281526004018083600019166000191681526020018273ffffffffffffffffffffffffffffffffffffffff1673ffffffffffffffffffffffffffffffffffffffff16815260200192505050600060405180830381600087803b151561076157600080fd5b6102c65a03f1151561077257600080fd5b50505061077d6102f5565b91506000809054906101000a900473ffffffffffffffffffffffffffffffffffffffff1673ffffffffffffffffffffffffffffffffffffffff16634f3029c28560405180807f76657273696f6e000000000000000000000000000000000000000000000000008152506007018273ffffffffffffffffffffffffffffffffffffffff1673ffffffffffffffffffffffffffffffffffffffff166c010000000000000000000000000281526014019150506040518091039020600185016040518363ffffffff167c010000000000000000000000000000000000000000000000000000000002815260040180836000191660001916815260200182815260200192505050600060405180830381600087803b151561089957600080fd5b6102c65a03f115156108aa57600080fd5b5050506108b56101fe565b73ffffffffffffffffffffffffffffffffffffffff167f5887ab9161c3be2fe962b73e068a9f29082efb6daf2bfcbd3f064bc34d1ef1b76108f46102f5565b6040518082815260200191505060405180910390a250505050565b6000806000809054906101000a900473ffffffffffffffffffffffffffffffffffffffff1673ffffffffffffffffffffffffffffffffffffffff166321f8a72160405180807f6f776e6572000000000000000000000000000000000000000000000000000000815250600501905060405180910390206000604051602001526040518263ffffffff167c0100000000000000000000000000000000000000000000000000000000028152600401808260001916600019168152602001915050602060405180830381600087803b15156109e757600080fd5b6102c65a03f115156109f857600080fd5b5050506040518051905090508073ffffffffffffffffffffffffffffffffffffffff163373ffffffffffffffffffffffffffffffffffffffff16141515610a3e57600080fd5b600073ffffffffffffffffffffffffffffffffffffffff168373ffffffffffffffffffffffffffffffffffffffff1614151515610a7a57600080fd5b6000809054906101000a900473ffffffffffffffffffffffffffffffffffffffff1673ffffffffffffffffffffffffffffffffffffffff166321f8a72160405180807f6f776e6572000000000000000000000000000000000000000000000000000000815250600501905060405180910390206000604051602001526040518263ffffffff167c0100000000000000000000000000000000000000000000000000000000028152600401808260001916600019168152602001915050602060405180830381600087803b1515610b4f57600080fd5b6102c65a03f11515610b6057600080fd5b5050506040518051905091508273ffffffffffffffffffffffffffffffffffffffff168273ffffffffffffffffffffffffffffffffffffffff167f8be0079c531659141344cd1fd0a4f28419497f9722a3daafe3b4186f6b6457e060405160405180910390a3829150505050565b6020604051908101604052806000815250905600a165627a7a72305820932b447f82648c3b87e78a897a5b98dcb0ee73859719a2f7e7d8c4ab2136b8f20029",
  "source": "pragma solidity ^0.4.18;\r\n\r\nimport \"./utils/Proxy.sol\";\r\nimport \"./ContractStorage.sol\";\r\n\r\nimport \"./ContractStorageConsumer.sol\";\r\nimport \"./utils/universal_storage/UniversalStorage.sol\";\r\nimport \"./utils/universal_storage/UniversalStorageConsumer.sol\";\r\n\r\n\r\ncontract Contract is UniversalStorageConsumer, ContractStorageConsumer, Proxy{\r\n\r\n    function Contract(UniversalStorage ustorage_, ContractStorage lstorage_, uint256 _initialAmount)\r\n        public\r\n        UniversalStorageConsumer(ustorage_)\r\n        ContractStorageConsumer(lstorage_)\r\n    {\r\n        // set some initial states in universal storage\r\n        ustorage_.setString(keccak256(\"name\"), \"Contract\");\r\n        ustorage_.setUint256(keccak256(\"total_supply\"), _initialAmount); // Set the initial total supply\r\n        \r\n    }\r\n}",
  "sourcePath": "D:\\task1\\EIP20\\contracts\\Contract.sol",
  "compiler": {
    "name": "solc",
    "version": "0.4.19+commit.c4cbbb05.Emscripten.clang"
  },
  "schemaVersion": "2.0.0",
  "updatedAt": "2018-04-13T02:26:18.278Z"
}