{
  "contractName": "DSMathLib",
  "abi": [
    {
      "constant": true,
      "inputs": [
        {
          "name": "x",
          "type": "uint256"
        },
        {
          "name": "y",
          "type": "uint256"
        }
      ],
      "name": "dsadd",
      "outputs": [
        {
          "name": "z",
          "type": "uint256"
        }
      ],
      "payable": false,
      "stateMutability": "view",
      "type": "function"
    },
    {
      "constant": true,
      "inputs": [
        {
          "name": "x",
          "type": "uint256"
        },
        {
          "name": "y",
          "type": "uint256"
        }
      ],
      "name": "dssub",
      "outputs": [
        {
          "name": "z",
          "type": "uint256"
        }
      ],
      "payable": false,
      "stateMutability": "view",
      "type": "function"
    },
    {
      "constant": true,
      "inputs": [
        {
          "name": "x",
          "type": "uint256"
        },
        {
          "name": "y",
          "type": "uint256"
        }
      ],
      "name": "dsmul",
      "outputs": [
        {
          "name": "z",
          "type": "uint256"
        }
      ],
      "payable": false,
      "stateMutability": "view",
      "type": "function"
    },
    {
      "constant": true,
      "inputs": [
        {
          "name": "x",
          "type": "uint256"
        },
        {
          "name": "y",
          "type": "uint256"
        }
      ],
      "name": "dsdiv",
      "outputs": [
        {
          "name": "z",
          "type": "uint256"
        }
      ],
      "payable": false,
      "stateMutability": "view",
      "type": "function"
    },
    {
      "constant": true,
      "inputs": [
        {
          "name": "x",
          "type": "uint256"
        },
        {
          "name": "y",
          "type": "uint256"
        }
      ],
      "name": "min",
      "outputs": [
        {
          "name": "z",
          "type": "uint256"
        }
      ],
      "payable": false,
      "stateMutability": "view",
      "type": "function"
    },
    {
      "constant": true,
      "inputs": [
        {
          "name": "x",
          "type": "uint256"
        },
        {
          "name": "y",
          "type": "uint256"
        }
      ],
      "name": "max",
      "outputs": [
        {
          "name": "z",
          "type": "uint256"
        }
      ],
      "payable": false,
      "stateMutability": "view",
      "type": "function"
    },
    {
      "constant": true,
      "inputs": [
        {
          "name": "x",
          "type": "uint128"
        },
        {
          "name": "y",
          "type": "uint128"
        }
      ],
      "name": "hadd",
      "outputs": [
        {
          "name": "z",
          "type": "uint128"
        }
      ],
      "payable": false,
      "stateMutability": "view",
      "type": "function"
    },
    {
      "constant": true,
      "inputs": [
        {
          "name": "x",
          "type": "uint128"
        },
        {
          "name": "y",
          "type": "uint128"
        }
      ],
      "name": "hsub",
      "outputs": [
        {
          "name": "z",
          "type": "uint128"
        }
      ],
      "payable": false,
      "stateMutability": "view",
      "type": "function"
    },
    {
      "constant": true,
      "inputs": [
        {
          "name": "x",
          "type": "uint128"
        },
        {
          "name": "y",
          "type": "uint128"
        }
      ],
      "name": "hmul",
      "outputs": [
        {
          "name": "z",
          "type": "uint128"
        }
      ],
      "payable": false,
      "stateMutability": "view",
      "type": "function"
    },
    {
      "constant": true,
      "inputs": [
        {
          "name": "x",
          "type": "uint128"
        },
        {
          "name": "y",
          "type": "uint128"
        }
      ],
      "name": "hdiv",
      "outputs": [
        {
          "name": "z",
          "type": "uint128"
        }
      ],
      "payable": false,
      "stateMutability": "view",
      "type": "function"
    },
    {
      "constant": true,
      "inputs": [
        {
          "name": "x",
          "type": "uint128"
        },
        {
          "name": "y",
          "type": "uint128"
        }
      ],
      "name": "hmin",
      "outputs": [
        {
          "name": "z",
          "type": "uint128"
        }
      ],
      "payable": false,
      "stateMutability": "view",
      "type": "function"
    },
    {
      "constant": true,
      "inputs": [
        {
          "name": "x",
          "type": "uint128"
        },
        {
          "name": "y",
          "type": "uint128"
        }
      ],
      "name": "hmax",
      "outputs": [
        {
          "name": "z",
          "type": "uint128"
        }
      ],
      "payable": false,
      "stateMutability": "view",
      "type": "function"
    },
    {
      "constant": true,
      "inputs": [
        {
          "name": "x",
          "type": "int256"
        },
        {
          "name": "y",
          "type": "int256"
        }
      ],
      "name": "imin",
      "outputs": [
        {
          "name": "z",
          "type": "int256"
        }
      ],
      "payable": false,
      "stateMutability": "view",
      "type": "function"
    },
    {
      "constant": true,
      "inputs": [
        {
          "name": "x",
          "type": "int256"
        },
        {
          "name": "y",
          "type": "int256"
        }
      ],
      "name": "imax",
      "outputs": [
        {
          "name": "z",
          "type": "int256"
        }
      ],
      "payable": false,
      "stateMutability": "view",
      "type": "function"
    },
    {
      "constant": true,
      "inputs": [
        {
          "name": "x",
          "type": "uint128"
        },
        {
          "name": "y",
          "type": "uint128"
        }
      ],
      "name": "wadd",
      "outputs": [
        {
          "name": "",
          "type": "uint128"
        }
      ],
      "payable": false,
      "stateMutability": "view",
      "type": "function"
    },
    {
      "constant": true,
      "inputs": [
        {
          "name": "x",
          "type": "uint128"
        },
        {
          "name": "y",
          "type": "uint128"
        }
      ],
      "name": "wsub",
      "outputs": [
        {
          "name": "",
          "type": "uint128"
        }
      ],
      "payable": false,
      "stateMutability": "view",
      "type": "function"
    },
    {
      "constant": true,
      "inputs": [
        {
          "name": "x",
          "type": "uint128"
        },
        {
          "name": "y",
          "type": "uint128"
        }
      ],
      "name": "wmul",
      "outputs": [
        {
          "name": "z",
          "type": "uint128"
        }
      ],
      "payable": false,
      "stateMutability": "view",
      "type": "function"
    },
    {
      "constant": true,
      "inputs": [
        {
          "name": "x",
          "type": "uint128"
        },
        {
          "name": "y",
          "type": "uint128"
        }
      ],
      "name": "wdiv",
      "outputs": [
        {
          "name": "z",
          "type": "uint128"
        }
      ],
      "payable": false,
      "stateMutability": "view",
      "type": "function"
    },
    {
      "constant": true,
      "inputs": [
        {
          "name": "x",
          "type": "uint128"
        },
        {
          "name": "y",
          "type": "uint128"
        }
      ],
      "name": "wdiv_floor",
      "outputs": [
        {
          "name": "z",
          "type": "uint128"
        }
      ],
      "payable": false,
      "stateMutability": "view",
      "type": "function"
    },
    {
      "constant": true,
      "inputs": [
        {
          "name": "x",
          "type": "uint128"
        },
        {
          "name": "y",
          "type": "uint128"
        }
      ],
      "name": "wmin",
      "outputs": [
        {
          "name": "",
          "type": "uint128"
        }
      ],
      "payable": false,
      "stateMutability": "view",
      "type": "function"
    },
    {
      "constant": true,
      "inputs": [
        {
          "name": "x",
          "type": "uint128"
        },
        {
          "name": "y",
          "type": "uint128"
        }
      ],
      "name": "wmax",
      "outputs": [
        {
          "name": "",
          "type": "uint128"
        }
      ],
      "payable": false,
      "stateMutability": "view",
      "type": "function"
    },
    {
      "constant": true,
      "inputs": [
        {
          "name": "x",
          "type": "uint128"
        },
        {
          "name": "y",
          "type": "uint128"
        }
      ],
      "name": "radd",
      "outputs": [
        {
          "name": "",
          "type": "uint128"
        }
      ],
      "payable": false,
      "stateMutability": "view",
      "type": "function"
    },
    {
      "constant": true,
      "inputs": [
        {
          "name": "x",
          "type": "uint128"
        },
        {
          "name": "y",
          "type": "uint128"
        }
      ],
      "name": "rsub",
      "outputs": [
        {
          "name": "",
          "type": "uint128"
        }
      ],
      "payable": false,
      "stateMutability": "view",
      "type": "function"
    },
    {
      "constant": true,
      "inputs": [
        {
          "name": "x",
          "type": "uint128"
        },
        {
          "name": "y",
          "type": "uint128"
        }
      ],
      "name": "rmul",
      "outputs": [
        {
          "name": "z",
          "type": "uint128"
        }
      ],
      "payable": false,
      "stateMutability": "view",
      "type": "function"
    },
    {
      "constant": true,
      "inputs": [
        {
          "name": "x",
          "type": "uint128"
        },
        {
          "name": "y",
          "type": "uint128"
        }
      ],
      "name": "rdiv",
      "outputs": [
        {
          "name": "z",
          "type": "uint128"
        }
      ],
      "payable": false,
      "stateMutability": "view",
      "type": "function"
    },
    {
      "constant": true,
      "inputs": [
        {
          "name": "x",
          "type": "uint128"
        },
        {
          "name": "y",
          "type": "uint128"
        }
      ],
      "name": "rdiv_floor",
      "outputs": [
        {
          "name": "z",
          "type": "uint128"
        }
      ],
      "payable": false,
      "stateMutability": "view",
      "type": "function"
    },
    {
      "constant": true,
      "inputs": [
        {
          "name": "x",
          "type": "uint128"
        },
        {
          "name": "n",
          "type": "uint64"
        }
      ],
      "name": "rpow",
      "outputs": [
        {
          "name": "z",
          "type": "uint128"
        }
      ],
      "payable": false,
      "stateMutability": "view",
      "type": "function"
    },
    {
      "constant": true,
      "inputs": [
        {
          "name": "x",
          "type": "uint128"
        },
        {
          "name": "y",
          "type": "uint128"
        }
      ],
      "name": "rmin",
      "outputs": [
        {
          "name": "",
          "type": "uint128"
        }
      ],
      "payable": false,
      "stateMutability": "view",
      "type": "function"
    },
    {
      "constant": true,
      "inputs": [
        {
          "name": "x",
          "type": "uint128"
        },
        {
          "name": "y",
          "type": "uint128"
        }
      ],
      "name": "rmax",
      "outputs": [
        {
          "name": "",
          "type": "uint128"
        }
      ],
      "payable": false,
      "stateMutability": "view",
      "type": "function"
    },
    {
      "constant": true,
      "inputs": [
        {
          "name": "x",
          "type": "uint256"
        }
      ],
      "name": "cast",
      "outputs": [
        {
          "name": "z",
          "type": "uint128"
        }
      ],
      "payable": false,
      "stateMutability": "view",
      "type": "function"
    }
  ],
  "bytecode": "0x6060604052341561000f57600080fd5b6115308061001e6000396000f300606060405260043610610180576000357c0100000000000000000000000000000000000000000000000000000000900463ffffffff1680630df1894214610185578063101d990c14610202578063173f22f01461027f578063237f793b146102fc5780632a054140146103315780633c8f327814610366578063523d897e146103e35780635ad959481461046057806369a046f2146104dd5780636d5433e61461055a578063714c17761461058f578063738198b4146105c45780637ae2b5c71461061457806387aa2bf9146106495780638f1eda37146106c6578063ae94e44814610743578063b7268ef414610778578063be2d5f32146107f5578063bf9b23031461082a578063c04aa9b8146108a7578063c1fb7c341461091c578063c3a8f53614610999578063c6b5e9b014610a16578063c8e6c7d914610a93578063cc129f4d14610ac8578063ce10814c14610b45578063d02fcad914610bc2578063dd8b0ff614610c3f578063e4b1e97714610cbc578063e536220614610d39575b600080fd5b6101c860048080356fffffffffffffffffffffffffffffffff169060200190919080356fffffffffffffffffffffffffffffffff16906020019091905050610db6565b60405180826fffffffffffffffffffffffffffffffff166fffffffffffffffffffffffffffffffff16815260200191505060405180910390f35b61024560048080356fffffffffffffffffffffffffffffffff169060200190919080356fffffffffffffffffffffffffffffffff16906020019091905050610df3565b60405180826fffffffffffffffffffffffffffffffff166fffffffffffffffffffffffffffffffff16815260200191505060405180910390f35b6102c260048080356fffffffffffffffffffffffffffffffff169060200190919080356fffffffffffffffffffffffffffffffff16906020019091905050610e7b565b60405180826fffffffffffffffffffffffffffffffff166fffffffffffffffffffffffffffffffff16815260200191505060405180910390f35b61031b6004808035906020019091908035906020019091905050610e8f565b6040518082815260200191505060405180910390f35b6103506004808035906020019091908035906020019091905050610ea8565b6040518082815260200191505060405180910390f35b6103a960048080356fffffffffffffffffffffffffffffffff169060200190919080356fffffffffffffffffffffffffffffffff16906020019091905050610ed6565b60405180826fffffffffffffffffffffffffffffffff166fffffffffffffffffffffffffffffffff16815260200191505060405180910390f35b61042660048080356fffffffffffffffffffffffffffffffff169060200190919080356fffffffffffffffffffffffffffffffff16906020019091905050610f14565b60405180826fffffffffffffffffffffffffffffffff166fffffffffffffffffffffffffffffffff16815260200191505060405180910390f35b6104a360048080356fffffffffffffffffffffffffffffffff169060200190919080356fffffffffffffffffffffffffffffffff16906020019091905050610f28565b60405180826fffffffffffffffffffffffffffffffff166fffffffffffffffffffffffffffffffff16815260200191505060405180910390f35b61052060048080356fffffffffffffffffffffffffffffffff169060200190919080356fffffffffffffffffffffffffffffffff16906020019091905050610f3c565b60405180826fffffffffffffffffffffffffffffffff166fffffffffffffffffffffffffffffffff16815260200191505060405180910390f35b6105796004808035906020019091908035906020019091905050610f50565b6040518082815260200191505060405180910390f35b6105ae6004808035906020019091908035906020019091905050610f6a565b6040518082815260200191505060405180910390f35b6105da6004808035906020019091905050610f83565b60405180826fffffffffffffffffffffffffffffffff166fffffffffffffffffffffffffffffffff16815260200191505060405180910390f35b6106336004808035906020019091908035906020019091905050610faa565b6040518082815260200191505060405180910390f35b61068c60048080356fffffffffffffffffffffffffffffffff169060200190919080356fffffffffffffffffffffffffffffffff16906020019091905050610fc4565b60405180826fffffffffffffffffffffffffffffffff166fffffffffffffffffffffffffffffffff16815260200191505060405180910390f35b61070960048080356fffffffffffffffffffffffffffffffff169060200190919080356fffffffffffffffffffffffffffffffff16906020019091905050611064565b60405180826fffffffffffffffffffffffffffffffff166fffffffffffffffffffffffffffffffff16815260200191505060405180910390f35b61076260048080359060200190919080359060200190919050506110fc565b6040518082815260200191505060405180910390f35b6107bb60048080356fffffffffffffffffffffffffffffffff169060200190919080356fffffffffffffffffffffffffffffffff16906020019091905050611116565b60405180826fffffffffffffffffffffffffffffffff166fffffffffffffffffffffffffffffffff16815260200191505060405180910390f35b61081460048080359060200190919080359060200190919050506111aa565b6040518082815260200191505060405180910390f35b61086d60048080356fffffffffffffffffffffffffffffffff169060200190919080356fffffffffffffffffffffffffffffffff169060200190919050506111c0565b60405180826fffffffffffffffffffffffffffffffff166fffffffffffffffffffffffffffffffff16815260200191505060405180910390f35b6108e260048080356fffffffffffffffffffffffffffffffff1690602001909190803567ffffffffffffffff1690602001909190505061121e565b60405180826fffffffffffffffffffffffffffffffff166fffffffffffffffffffffffffffffffff16815260200191505060405180910390f35b61095f60048080356fffffffffffffffffffffffffffffffff169060200190919080356fffffffffffffffffffffffffffffffff169060200190919050506112f3565b60405180826fffffffffffffffffffffffffffffffff166fffffffffffffffffffffffffffffffff16815260200191505060405180910390f35b6109dc60048080356fffffffffffffffffffffffffffffffff169060200190919080356fffffffffffffffffffffffffffffffff16906020019091905050611331565b60405180826fffffffffffffffffffffffffffffffff166fffffffffffffffffffffffffffffffff16815260200191505060405180910390f35b610a5960048080356fffffffffffffffffffffffffffffffff169060200190919080356fffffffffffffffffffffffffffffffff16906020019091905050611345565b60405180826fffffffffffffffffffffffffffffffff166fffffffffffffffffffffffffffffffff16815260200191505060405180910390f35b610ab260048080359060200190919080359060200190919050506113a7565b6040518082815260200191505060405180910390f35b610b0b60048080356fffffffffffffffffffffffffffffffff169060200190919080356fffffffffffffffffffffffffffffffff169060200190919050506113c1565b60405180826fffffffffffffffffffffffffffffffff166fffffffffffffffffffffffffffffffff16815260200191505060405180910390f35b610b8860048080356fffffffffffffffffffffffffffffffff169060200190919080356fffffffffffffffffffffffffffffffff169060200190919050506113d5565b60405180826fffffffffffffffffffffffffffffffff166fffffffffffffffffffffffffffffffff16815260200191505060405180910390f35b610c0560048080356fffffffffffffffffffffffffffffffff169060200190919080356fffffffffffffffffffffffffffffffff169060200190919050506113e9565b60405180826fffffffffffffffffffffffffffffffff166fffffffffffffffffffffffffffffffff16815260200191505060405180910390f35b610c8260048080356fffffffffffffffffffffffffffffffff169060200190919080356fffffffffffffffffffffffffffffffff16906020019091905050611479565b60405180826fffffffffffffffffffffffffffffffff166fffffffffffffffffffffffffffffffff16815260200191505060405180910390f35b610cff60048080356fffffffffffffffffffffffffffffffff169060200190919080356fffffffffffffffffffffffffffffffff1690602001909190505061148d565b60405180826fffffffffffffffffffffffffffffffff166fffffffffffffffffffffffffffffffff16815260200191505060405180910390f35b610d7c60048080356fffffffffffffffffffffffffffffffff169060200190919080356fffffffffffffffffffffffffffffffff169060200190919050506114ca565b60405180826fffffffffffffffffffffffffffffffff166fffffffffffffffffffffffffffffffff16815260200191505060405180910390f35b6000826fffffffffffffffffffffffffffffffff168284039150816fffffffffffffffffffffffffffffffff1611151515610ded57fe5b92915050565b600081830290506000836fffffffffffffffffffffffffffffffff161480610e6d5750816fffffffffffffffffffffffffffffffff16836fffffffffffffffffffffffffffffffff16826fffffffffffffffffffffffffffffffff16811515610e5857fe5b046fffffffffffffffffffffffffffffffff16145b1515610e7557fe5b92915050565b6000610e8783836112f3565b905092915050565b60008282840391508111151515610ea257fe5b92915050565b600081830290506000831480610ec85750818382811515610ec557fe5b04145b1515610ed057fe5b92915050565b6000816fffffffffffffffffffffffffffffffff16836fffffffffffffffffffffffffffffffff161015610f0a5781610f0c565b825b905092915050565b6000610f208383610db6565b905092915050565b6000610f3483836112f3565b905092915050565b6000610f48838361148d565b905092915050565b600081831015610f605781610f62565b825b905092915050565b60008282840191508110151515610f7d57fe5b92915050565b600081829150816fffffffffffffffffffffffffffffffff16141515610fa557fe5b919050565b600081831115610fba5781610fbc565b825b905092915050565b600061105c6b033b2e3c9fd0803ce80000006fffffffffffffffffffffffffffffffff1660026b033b2e3c9fd0803ce80000006fffffffffffffffffffffffffffffffff1681151561101257fe5b046fffffffffffffffffffffffffffffffff16846fffffffffffffffffffffffffffffffff16866fffffffffffffffffffffffffffffffff16020181151561105657fe5b04610f83565b905092915050565b60006110f4670de0b6b3a76400006fffffffffffffffffffffffffffffffff166002670de0b6b3a76400006fffffffffffffffffffffffffffffffff168115156110aa57fe5b046fffffffffffffffffffffffffffffffff16846fffffffffffffffffffffffffffffffff16866fffffffffffffffffffffffffffffffff1602018115156110ee57fe5b04610f83565b905092915050565b60008183121561110c578161110e565b825b905092915050565b60006111a2826fffffffffffffffffffffffffffffffff166002846fffffffffffffffffffffffffffffffff1681151561114c57fe5b046fffffffffffffffffffffffffffffffff166b033b2e3c9fd0803ce80000006fffffffffffffffffffffffffffffffff16866fffffffffffffffffffffffffffffffff16020181151561119c57fe5b04610f83565b905092915050565b600081838115156111b757fe5b04905092915050565b6000611216826fffffffffffffffffffffffffffffffff16670de0b6b3a76400006fffffffffffffffffffffffffffffffff16856fffffffffffffffffffffffffffffffff160281151561121057fe5b04610f83565b905092915050565b60008060028367ffffffffffffffff1681151561123757fe5b0667ffffffffffffffff16141561125a576b033b2e3c9fd0803ce800000061125c565b825b905060028267ffffffffffffffff1681151561127457fe5b0491505b60008267ffffffffffffffff161415156112ed576112968384610fc4565b9250600060028367ffffffffffffffff168115156112b057fe5b0667ffffffffffffffff161415156112cf576112cc8184610fc4565b90505b60028267ffffffffffffffff168115156112e557fe5b049150611278565b92915050565b6000816fffffffffffffffffffffffffffffffff16836fffffffffffffffffffffffffffffffff1611156113275781611329565b825b905092915050565b600061133d8383610db6565b905092915050565b600061139f826fffffffffffffffffffffffffffffffff166b033b2e3c9fd0803ce80000006fffffffffffffffffffffffffffffffff16856fffffffffffffffffffffffffffffffff160281151561139957fe5b04610f83565b905092915050565b6000818313156113b757816113b9565b825b905092915050565b60006113cd838361148d565b905092915050565b60006113e18383610ed6565b905092915050565b6000611471826fffffffffffffffffffffffffffffffff166002846fffffffffffffffffffffffffffffffff1681151561141f57fe5b046fffffffffffffffffffffffffffffffff16670de0b6b3a76400006fffffffffffffffffffffffffffffffff16866fffffffffffffffffffffffffffffffff16020181151561146b57fe5b04610f83565b905092915050565b60006114858383610ed6565b905092915050565b6000826fffffffffffffffffffffffffffffffff168284019150816fffffffffffffffffffffffffffffffff16101515156114c457fe5b92915050565b6000816fffffffffffffffffffffffffffffffff16836fffffffffffffffffffffffffffffffff168115156114fb57fe5b049050929150505600a165627a7a723058207affc1d13d8515ba5617b52c3c69145abaeaaba832197f8a25c4b644217971810029",
  "source": "/*\r\n* @title - DSMath.sol\r\n* @description -\r\n   Copyright (C) 2018  Terry Wilkinson <terry.wilkinson@finterra.org>\r\n   Adapted version of https://github.com/dapphub/ds-math, includes a div floor rather than only rounding\r\n\r\n   Permission is hereby granted, free of charge, to any person obtaining a copy of this software and \r\n   associated documentation files (the \"Software\"), to deal in the Software without restriction, including \r\n   without limitation the rights to use, copy, modify, merge, publish, distribute, sublicense, and/or sell \r\n   copies of the Software, and to permit persons to whom the Software is furnished to do so, subject to the \r\n   following conditions:\r\n\r\n   The above copyright notice and this permission notice shall be included in all copies or substantial \r\n   portions of the Software.\r\n\r\n   THE SOFTWARE IS PROVIDED \"AS IS\", WITHOUT WARRANTY OF ANY KIND, EXPRESS OR IMPLIED, INCLUDING BUT NOT \r\n   LIMITED TO THE WARRANTIES OF MERCHANTABILITY, FITNESS FOR A PARTICULAR PURPOSE AND NONINFRINGEMENT. \r\n   IN NO EVENT SHALL THE AUTHORS OR COPYRIGHT HOLDERS BE LIABLE FOR ANY CLAIM, DAMAGES OR OTHER LIABILITY, \r\n   WHETHER IN AN ACTION OF CONTRACT, TORT OR OTHERWISE, ARISING FROM, OUT OF OR IN CONNECTION WITH THE \r\n   SOFTWARE OR THE USE OR OTHER DEALINGS IN THE SOFTWARE.\r\n*/\r\n\r\npragma solidity ^0.4.18;\r\n\r\nlibrary DSMathLib {\r\n    /*\r\n    standard uint256 functions\r\n     */\r\n\r\n    function dsadd(uint256 x, uint256 y) public view returns (uint256 z) {\r\n        assert((z = x + y) >= x);\r\n    }\r\n\r\n    function dssub(uint256 x, uint256 y) public view returns (uint256 z) {\r\n        assert((z = x - y) <= x);\r\n    }\r\n\r\n    function dsmul(uint256 x, uint256 y)public view returns (uint256 z) {\r\n        z = x * y;\r\n        assert(x == 0 || z / x == y);\r\n    }\r\n\r\n    function dsdiv(uint256 x, uint256 y)public view returns (uint256 z) {\r\n        z = x / y;\r\n    }\r\n\r\n    function min(uint256 x, uint256 y)public view returns (uint256 z) {\r\n        return x <= y ? x : y;\r\n    }\r\n    function max(uint256 x, uint256 y)public view returns (uint256 z) {\r\n        return x >= y ? x : y;\r\n    }\r\n\r\n    /*\r\n    uint128 functions (h is for half)\r\n     */\r\n\r\n\r\n    function hadd(uint128 x, uint128 y)public view returns (uint128 z) {\r\n        assert((z = x + y) >= x);\r\n    }\r\n\r\n    function hsub(uint128 x, uint128 y)public view returns (uint128 z) {\r\n        assert((z = x - y) <= x);\r\n    }\r\n\r\n    function hmul(uint128 x, uint128 y)public view returns (uint128 z) {\r\n        z = x * y;\r\n        assert(x == 0 || z / x == y);\r\n    }\r\n\r\n    function hdiv(uint128 x, uint128 y)public view returns (uint128 z) {\r\n        z = x / y;\r\n    }\r\n\r\n    function hmin(uint128 x, uint128 y)public view returns (uint128 z) {\r\n        return x <= y ? x : y;\r\n    }\r\n    function hmax(uint128 x, uint128 y)public view returns (uint128 z) {\r\n        return x >= y ? x : y;\r\n    }\r\n\r\n\r\n    /*\r\n    int256 functions\r\n     */\r\n\r\n    function imin(int256 x, int256 y) public view returns (int256 z) {\r\n        return x <= y ? x : y;\r\n    }\r\n    function imax(int256 x, int256 y) public view returns (int256 z) {\r\n        return x >= y ? x : y;\r\n    }\r\n\r\n    /*\r\n    WAD math\r\n     */\r\n\r\n    uint128 constant WAD = 10 ** 18;\r\n\r\n    function wadd(uint128 x, uint128 y) public view returns (uint128) {\r\n        return hadd(x, y);\r\n    }\r\n\r\n    function wsub(uint128 x, uint128 y) public view returns (uint128) {\r\n        return hsub(x, y);\r\n    }\r\n\r\n    function wmul(uint128 x, uint128 y) public view returns (uint128 z) {\r\n        z = cast((uint256(x) * y + WAD / 2) / WAD);\r\n    }\r\n\r\n    function wdiv(uint128 x, uint128 y) public view returns (uint128 z) {\r\n        z = cast((uint256(x) * WAD + y / 2) / y);\r\n    }\r\n    \r\n    // div floored\r\n    function wdiv_floor(uint128 x, uint128 y) public view returns (uint128 z) {\r\n        z = cast((uint256(x) * WAD) / y);\r\n    }\r\n\r\n    function wmin(uint128 x, uint128 y) public view returns (uint128) {\r\n        return hmin(x, y);\r\n    }\r\n    function wmax(uint128 x, uint128 y) public view returns (uint128) {\r\n        return hmax(x, y);\r\n    }\r\n\r\n    /*\r\n    RAY math\r\n     */\r\n\r\n    uint128 constant RAY = 10 ** 27;\r\n\r\n    function radd(uint128 x, uint128 y) public view returns (uint128) {\r\n        return hadd(x, y);\r\n    }\r\n\r\n    function rsub(uint128 x, uint128 y) public view returns (uint128) {\r\n        return hsub(x, y);\r\n    }\r\n\r\n    function rmul(uint128 x, uint128 y) public view returns (uint128 z) {\r\n        z = cast((uint256(x) * y + RAY / 2) / RAY);\r\n    }\r\n\r\n    function rdiv(uint128 x, uint128 y) public view returns (uint128 z) {\r\n        z = cast((uint256(x) * RAY + y / 2) / y);\r\n    }\r\n\r\n    function rdiv_floor(uint128 x, uint128 y) public view returns (uint128 z) {\r\n        z = cast((uint256(x) * RAY) / y);\r\n    }\r\n\r\n    function rpow(uint128 x, uint64 n) public view returns (uint128 z) {\r\n        // This famous algorithm is called \"exponentiation by squaring\"\r\n        // and calculates x^n with x as fixed-point and n as regular unsigned.\r\n        //\r\n        // It's O(log n), instead of O(n) for naive repeated multiplication.\r\n        //\r\n        // These facts are why it works:\r\n        //\r\n        //  If n is even, then x^n = (x^2)^(n/2).\r\n        //  If n is odd,  then x^n = x * x^(n-1),\r\n        //   and applying the equation for even x gives\r\n        //    x^n = x * (x^2)^((n-1) / 2).\r\n        //\r\n        //  Also, EVM division is flooring and\r\n        //    floor[(n-1) / 2] = floor[n / 2].\r\n\r\n        z = n % 2 != 0 ? x : RAY;\r\n\r\n        for (n /= 2; n != 0; n /= 2) {\r\n            x = rmul(x, x);\r\n\r\n            if (n % 2 != 0) {\r\n                z = rmul(z, x);\r\n            }\r\n        }\r\n    }\r\n\r\n    function rmin(uint128 x, uint128 y) public view returns (uint128) {\r\n        return hmin(x, y);\r\n    }\r\n    function rmax(uint128 x, uint128 y) public view returns (uint128) {\r\n        return hmax(x, y);\r\n    }\r\n\r\n    function cast(uint256 x) public view returns (uint128 z) {\r\n        assert((z = uint128(x)) == x);\r\n    }\r\n\r\n}",
  "sourcePath": "D:\\task1\\EIP20\\contracts\\libs\\DSMathLib.sol",
  "compiler": {
    "name": "solc",
    "version": "0.4.19+commit.c4cbbb05.Emscripten.clang"
  },
  "schemaVersion": "2.0.0",
  "updatedAt": "2018-04-13T02:26:18.035Z"
}