{
  "contractName": "Proxy",
  "abi": [
    {
      "constant": false,
      "inputs": [
        {
          "name": "_newOwner",
          "type": "address"
        }
      ],
      "name": "transferOwnership",
      "outputs": [],
      "payable": false,
      "stateMutability": "nonpayable",
      "type": "function"
    },
    {
      "payable": true,
      "stateMutability": "payable",
      "type": "fallback"
    },
    {
      "anonymous": false,
      "inputs": [
        {
          "indexed": true,
          "name": "implementation",
          "type": "address"
        },
        {
          "indexed": false,
          "name": "version",
          "type": "uint256"
        }
      ],
      "name": "Upgraded",
      "type": "event"
    },
    {
      "anonymous": false,
      "inputs": [
        {
          "indexed": true,
          "name": "previousOwner",
          "type": "address"
        },
        {
          "indexed": true,
          "name": "newOwner",
          "type": "address"
        }
      ],
      "name": "OwnershipTransferred",
      "type": "event"
    },
    {
      "constant": true,
      "inputs": [],
      "name": "getImplementation",
      "outputs": [
        {
          "name": "",
          "type": "address"
        }
      ],
      "payable": false,
      "stateMutability": "view",
      "type": "function"
    },
    {
      "constant": true,
      "inputs": [],
      "name": "getVersion",
      "outputs": [
        {
          "name": "",
          "type": "uint256"
        }
      ],
      "payable": false,
      "stateMutability": "view",
      "type": "function"
    },
    {
      "constant": false,
      "inputs": [
        {
          "name": "_impl",
          "type": "address"
        }
      ],
      "name": "upgradeTo",
      "outputs": [],
      "payable": false,
      "stateMutability": "nonpayable",
      "type": "function"
    }
  ],
  "bytecode": "0x60606040526000809054906101000a900473ffffffffffffffffffffffffffffffffffffffff1673ffffffffffffffffffffffffffffffffffffffff1663ca446dd960405180807f6f776e657200000000000000000000000000000000000000000000000000000081525060050190506040518091039020336040518363ffffffff167c01000000000000000000000000000000000000000000000000000000000281526004018083600019166000191681526020018273ffffffffffffffffffffffffffffffffffffffff1673ffffffffffffffffffffffffffffffffffffffff16815260200192505050600060405180830381600087803b151561010457600080fd5b6102c65a03f1151561011557600080fd5b505050610c0e806101276000396000f300606060405260043610610062576000357c0100000000000000000000000000000000000000000000000000000000900463ffffffff1680630d8e6e2c1461010e5780633659cfe614610137578063aaf10f4214610170578063f2fde38b146101c5575b600061006c610bce565b6100746101fe565b9150600073ffffffffffffffffffffffffffffffffffffffff168273ffffffffffffffffffffffffffffffffffffffff16141515156100b257600080fd5b6000368080601f0160208091040260200160405190810160405280939291908181526020018383808284378201915050505050509050600080825160208401855af43d604051816000823e826000811461010a578282f35b8282fd5b341561011957600080fd5b6101216102f5565b6040518082815260200191505060405180910390f35b341561014257600080fd5b61016e600480803573ffffffffffffffffffffffffffffffffffffffff169060200190919050506103ec565b005b341561017b57600080fd5b6101836101fe565b604051808273ffffffffffffffffffffffffffffffffffffffff1673ffffffffffffffffffffffffffffffffffffffff16815260200191505060405180910390f35b34156101d057600080fd5b6101fc600480803573ffffffffffffffffffffffffffffffffffffffff1690602001909190505061090f565b005b60008060009054906101000a900473ffffffffffffffffffffffffffffffffffffffff1673ffffffffffffffffffffffffffffffffffffffff166321f8a72160405180807f63757272656e745f696d706c656d656e746174696f6e00000000000000000000815250601601905060405180910390206000604051602001526040518263ffffffff167c0100000000000000000000000000000000000000000000000000000000028152600401808260001916600019168152602001915050602060405180830381600087803b15156102d557600080fd5b6102c65a03f115156102e657600080fd5b50505060405180519050905090565b60008060009054906101000a900473ffffffffffffffffffffffffffffffffffffffff1673ffffffffffffffffffffffffffffffffffffffff166333598b0060405180807f63757272656e745f76657273696f6e0000000000000000000000000000000000815250600f01905060405180910390206000604051602001526040518263ffffffff167c0100000000000000000000000000000000000000000000000000000000028152600401808260001916600019168152602001915050602060405180830381600087803b15156103cc57600080fd5b6102c65a03f115156103dd57600080fd5b50505060405180519050905090565b60008060008060009054906101000a900473ffffffffffffffffffffffffffffffffffffffff1673ffffffffffffffffffffffffffffffffffffffff166321f8a72160405180807f6f776e6572000000000000000000000000000000000000000000000000000000815250600501905060405180910390206000604051602001526040518263ffffffff167c0100000000000000000000000000000000000000000000000000000000028152600401808260001916600019168152602001915050602060405180830381600087803b15156104c657600080fd5b6102c65a03f115156104d757600080fd5b5050506040518051905090508073ffffffffffffffffffffffffffffffffffffffff163373ffffffffffffffffffffffffffffffffffffffff1614151561051d57600080fd5b6000809054906101000a900473ffffffffffffffffffffffffffffffffffffffff1673ffffffffffffffffffffffffffffffffffffffff166333598b008560405180807f76657273696f6e000000000000000000000000000000000000000000000000008152506007018273ffffffffffffffffffffffffffffffffffffffff1673ffffffffffffffffffffffffffffffffffffffff166c0100000000000000000000000002815260140191505060405180910390206000604051602001526040518263ffffffff167c0100000000000000000000000000000000000000000000000000000000028152600401808260001916600019168152602001915050602060405180830381600087803b151561063557600080fd5b6102c65a03f1151561064657600080fd5b50505060405180519050925060008314151561066157600080fd5b6000809054906101000a900473ffffffffffffffffffffffffffffffffffffffff1673ffffffffffffffffffffffffffffffffffffffff1663ca446dd960405180807f63757272656e745f696d706c656d656e746174696f6e0000000000000000000081525060160190506040518091039020866040518363ffffffff167c01000000000000000000000000000000000000000000000000000000000281526004018083600019166000191681526020018273ffffffffffffffffffffffffffffffffffffffff1673ffffffffffffffffffffffffffffffffffffffff16815260200192505050600060405180830381600087803b151561076157600080fd5b6102c65a03f1151561077257600080fd5b50505061077d6102f5565b91506000809054906101000a900473ffffffffffffffffffffffffffffffffffffffff1673ffffffffffffffffffffffffffffffffffffffff16634f3029c28560405180807f76657273696f6e000000000000000000000000000000000000000000000000008152506007018273ffffffffffffffffffffffffffffffffffffffff1673ffffffffffffffffffffffffffffffffffffffff166c010000000000000000000000000281526014019150506040518091039020600185016040518363ffffffff167c010000000000000000000000000000000000000000000000000000000002815260040180836000191660001916815260200182815260200192505050600060405180830381600087803b151561089957600080fd5b6102c65a03f115156108aa57600080fd5b5050506108b56101fe565b73ffffffffffffffffffffffffffffffffffffffff167f5887ab9161c3be2fe962b73e068a9f29082efb6daf2bfcbd3f064bc34d1ef1b76108f46102f5565b6040518082815260200191505060405180910390a250505050565b6000806000809054906101000a900473ffffffffffffffffffffffffffffffffffffffff1673ffffffffffffffffffffffffffffffffffffffff166321f8a72160405180807f6f776e6572000000000000000000000000000000000000000000000000000000815250600501905060405180910390206000604051602001526040518263ffffffff167c0100000000000000000000000000000000000000000000000000000000028152600401808260001916600019168152602001915050602060405180830381600087803b15156109e757600080fd5b6102c65a03f115156109f857600080fd5b5050506040518051905090508073ffffffffffffffffffffffffffffffffffffffff163373ffffffffffffffffffffffffffffffffffffffff16141515610a3e57600080fd5b600073ffffffffffffffffffffffffffffffffffffffff168373ffffffffffffffffffffffffffffffffffffffff1614151515610a7a57600080fd5b6000809054906101000a900473ffffffffffffffffffffffffffffffffffffffff1673ffffffffffffffffffffffffffffffffffffffff166321f8a72160405180807f6f776e6572000000000000000000000000000000000000000000000000000000815250600501905060405180910390206000604051602001526040518263ffffffff167c0100000000000000000000000000000000000000000000000000000000028152600401808260001916600019168152602001915050602060405180830381600087803b1515610b4f57600080fd5b6102c65a03f11515610b6057600080fd5b5050506040518051905091508273ffffffffffffffffffffffffffffffffffffffff168273ffffffffffffffffffffffffffffffffffffffff167f8be0079c531659141344cd1fd0a4f28419497f9722a3daafe3b4186f6b6457e060405160405180910390a3829150505050565b6020604051908101604052806000815250905600a165627a7a7230582096b463f0d8af4ded11f56441ff0a0335e337fcb975c388664dc4df67a8c2d6d40029",
  "source": "pragma solidity ^0.4.18;\r\n\r\nimport \"./Ownable.sol\";\r\n\r\ncontract Proxy is Ownable {\r\n\r\n  event Upgraded(address indexed implementation, uint version);\r\n\r\n  function getImplementation() public view returns (address) {\r\n     return _ustorage.getAddress(keccak256(\"current_implementation\"));\r\n  }\r\n\r\n  function getVersion() public view returns (uint256) {\r\n    return _ustorage.getUint256(keccak256(\"current_version\"));\r\n  }\r\n\r\n  function upgradeTo(address _impl) public onlyOwner {\r\n    \r\n    uint256 version = _ustorage.getUint256(keccak256(\"version\", _impl));\r\n\r\n    require(version == 0); // implementation address must not be already assigned a version (assigned implementations are on old addresses that will have non-zero versions)\r\n    _ustorage.setAddress(keccak256(\"current_implementation\"),_impl);\r\n    uint256 oldVersion = getVersion();\r\n    _ustorage.setUint256(keccak256(\"version\",_impl), oldVersion + 1);\r\n\r\n    Upgraded(getImplementation(), getVersion());\r\n  }\r\n \r\n  function () payable public {\r\n    address impl = getImplementation();\r\n    require(impl != address(0));\r\n    bytes memory data = msg.data;\r\n\r\n    assembly {\r\n      let result := delegatecall(gas, impl, add(data, 0x20), mload(data), 0, 0)\r\n      let size := returndatasize\r\n      let ptr := mload(0x40)\r\n      returndatacopy(ptr, 0, size)\r\n      switch result\r\n      case 0 { revert(ptr, size) }\r\n      default { return(ptr, size) }\r\n    }\r\n  }\r\n}",
  "sourcePath": "D:\\task1\\EIP20\\contracts\\utils\\Proxy.sol",
  "compiler": {
    "name": "solc",
    "version": "0.4.19+commit.c4cbbb05.Emscripten.clang"
  },
  "schemaVersion": "2.0.0",
  "updatedAt": "2018-04-12T11:26:28.711Z"
}