{
  "contractName": "UniversalStorage",
  "abi": [
    {
      "constant": true,
      "inputs": [
        {
          "name": "_key",
          "type": "bytes32"
        }
      ],
      "name": "getInt256",
      "outputs": [
        {
          "name": "",
          "type": "int256"
        }
      ],
      "payable": false,
      "stateMutability": "view",
      "type": "function"
    },
    {
      "constant": true,
      "inputs": [
        {
          "name": "_key",
          "type": "bytes32"
        }
      ],
      "name": "getUint256",
      "outputs": [
        {
          "name": "",
          "type": "uint256"
        }
      ],
      "payable": false,
      "stateMutability": "view",
      "type": "function"
    },
    {
      "constant": true,
      "inputs": [
        {
          "name": "_key",
          "type": "bytes32"
        }
      ],
      "name": "getBytes32",
      "outputs": [
        {
          "name": "",
          "type": "bytes32"
        }
      ],
      "payable": false,
      "stateMutability": "view",
      "type": "function"
    },
    {
      "constant": true,
      "inputs": [
        {
          "name": "_key",
          "type": "bytes32"
        }
      ],
      "name": "getAddress",
      "outputs": [
        {
          "name": "",
          "type": "address"
        }
      ],
      "payable": false,
      "stateMutability": "view",
      "type": "function"
    },
    {
      "constant": true,
      "inputs": [
        {
          "name": "_key",
          "type": "bytes32"
        }
      ],
      "name": "getBool",
      "outputs": [
        {
          "name": "",
          "type": "bool"
        }
      ],
      "payable": false,
      "stateMutability": "view",
      "type": "function"
    },
    {
      "constant": true,
      "inputs": [
        {
          "name": "_key",
          "type": "bytes32"
        }
      ],
      "name": "getString",
      "outputs": [
        {
          "name": "",
          "type": "string"
        }
      ],
      "payable": false,
      "stateMutability": "view",
      "type": "function"
    },
    {
      "constant": true,
      "inputs": [
        {
          "name": "_key",
          "type": "bytes32"
        }
      ],
      "name": "getBytes",
      "outputs": [
        {
          "name": "",
          "type": "bytes"
        }
      ],
      "payable": false,
      "stateMutability": "view",
      "type": "function"
    },
    {
      "constant": false,
      "inputs": [
        {
          "name": "_key",
          "type": "bytes32"
        },
        {
          "name": "_value",
          "type": "int256"
        }
      ],
      "name": "setInt256",
      "outputs": [],
      "payable": false,
      "stateMutability": "nonpayable",
      "type": "function"
    },
    {
      "constant": false,
      "inputs": [
        {
          "name": "_key",
          "type": "bytes32"
        },
        {
          "name": "_value",
          "type": "uint256"
        }
      ],
      "name": "setUint256",
      "outputs": [],
      "payable": false,
      "stateMutability": "nonpayable",
      "type": "function"
    },
    {
      "constant": false,
      "inputs": [
        {
          "name": "_key",
          "type": "bytes32"
        },
        {
          "name": "_value",
          "type": "bytes32"
        }
      ],
      "name": "setBytes32",
      "outputs": [],
      "payable": false,
      "stateMutability": "nonpayable",
      "type": "function"
    },
    {
      "constant": false,
      "inputs": [
        {
          "name": "_key",
          "type": "bytes32"
        },
        {
          "name": "_value",
          "type": "address"
        }
      ],
      "name": "setAddress",
      "outputs": [],
      "payable": false,
      "stateMutability": "nonpayable",
      "type": "function"
    },
    {
      "constant": false,
      "inputs": [
        {
          "name": "_key",
          "type": "bytes32"
        },
        {
          "name": "_value",
          "type": "bool"
        }
      ],
      "name": "setBool",
      "outputs": [],
      "payable": false,
      "stateMutability": "nonpayable",
      "type": "function"
    },
    {
      "constant": false,
      "inputs": [
        {
          "name": "_key",
          "type": "bytes32"
        },
        {
          "name": "_value",
          "type": "string"
        }
      ],
      "name": "setString",
      "outputs": [],
      "payable": false,
      "stateMutability": "nonpayable",
      "type": "function"
    },
    {
      "constant": false,
      "inputs": [
        {
          "name": "_key",
          "type": "bytes32"
        },
        {
          "name": "_value",
          "type": "bytes"
        }
      ],
      "name": "setBytes",
      "outputs": [],
      "payable": false,
      "stateMutability": "nonpayable",
      "type": "function"
    }
  ],
  "bytecode": "0x6060604052341561000f57600080fd5b610dfa8061001e6000396000f3006060604052600436106100d0576000357c0100000000000000000000000000000000000000000000000000000000900463ffffffff16806316c7d1d5146100d557806321f8a721146101105780632e28d0841461017757806333598b00146101e15780634e91db081461021c5780634f3029c2146102505780636e899550146102805780637ae1cfca146102ea578063986e791a14610329578063a6ed563e146103c9578063abfdcced1461040c578063c031a1801461043e578063ca446dd9146104de578063f64f41db14610524575b600080fd5b34156100e057600080fd5b6100fa600480803560001916906020019091905050610554565b6040518082815260200191505060405180910390f35b341561011b57600080fd5b6101356004808035600019169060200190919050506105b5565b604051808273ffffffffffffffffffffffffffffffffffffffff1673ffffffffffffffffffffffffffffffffffffffff16815260200191505060405180910390f35b341561018257600080fd5b6101df60048080356000191690602001909190803590602001908201803590602001908080601f01602080910402602001604051908101604052809392919081815260200183838082843782019150505050505091905050610637565b005b34156101ec57600080fd5b6102066004808035600019169060200190919050506106a8565b6040518082815260200191505060405180910390f35b341561022757600080fd5b61024e6004808035600019169060200190919080356000191690602001909190505061070a565b005b341561025b57600080fd5b61027e60048080356000191690602001909190803590602001909190505061076f565b005b341561028b57600080fd5b6102e860048080356000191690602001909190803590602001908201803590602001908080601f016020809104026020016040519081016040528093929190818152602001838380828437820191505050505050919050506107d0565b005b34156102f557600080fd5b61030f600480803560001916906020019091905050610841565b604051808215151515815260200191505060405180910390f35b341561033457600080fd5b61034e6004808035600019169060200190919050506108b0565b6040518080602001828103825283818151815260200191508051906020019080838360005b8381101561038e578082015181840152602081019050610373565b50505050905090810190601f1680156103bb5780820380516001836020036101000a031916815260200191505b509250505060405180910390f35b34156103d457600080fd5b6103ee6004808035600019169060200190919050506109b0565b60405180826000191660001916815260200191505060405180910390f35b341561041757600080fd5b61043c6004808035600019169060200190919080351515906020019091905050610a12565b005b341561044957600080fd5b610463600480803560001916906020019091905050610a86565b6040518080602001828103825283818151815260200191508051906020019080838360005b838110156104a3578082015181840152602081019050610488565b50505050905090810190601f1680156104d05780820380516001836020036101000a031916815260200191505b509250505060405180910390f35b34156104e957600080fd5b61052260048080356000191690602001909190803573ffffffffffffffffffffffffffffffffffffffff16906020019091905050610b86565b005b341561052f57600080fd5b610552600480803560001916906020019091908035906020019091905050610c21565b005b60008060003373ffffffffffffffffffffffffffffffffffffffff1673ffffffffffffffffffffffffffffffffffffffff16815260200190815260200160002060008360001916600019168152602001908152602001600020549050919050565b6000600360003373ffffffffffffffffffffffffffffffffffffffff1673ffffffffffffffffffffffffffffffffffffffff1681526020019081526020016000206000836000191660001916815260200190815260200160002060009054906101000a900473ffffffffffffffffffffffffffffffffffffffff169050919050565b80600660003373ffffffffffffffffffffffffffffffffffffffff1673ffffffffffffffffffffffffffffffffffffffff1681526020019081526020016000206000846000191660001916815260200190815260200160002090805190602001906106a3929190610c81565b505050565b6000600160003373ffffffffffffffffffffffffffffffffffffffff1673ffffffffffffffffffffffffffffffffffffffff16815260200190815260200160002060008360001916600019168152602001908152602001600020549050919050565b80600260003373ffffffffffffffffffffffffffffffffffffffff1673ffffffffffffffffffffffffffffffffffffffff1681526020019081526020016000206000846000191660001916815260200190815260200160002081600019169055505050565b80600160003373ffffffffffffffffffffffffffffffffffffffff1673ffffffffffffffffffffffffffffffffffffffff16815260200190815260200160002060008460001916600019168152602001908152602001600020819055505050565b80600560003373ffffffffffffffffffffffffffffffffffffffff1673ffffffffffffffffffffffffffffffffffffffff16815260200190815260200160002060008460001916600019168152602001908152602001600020908051906020019061083c929190610d01565b505050565b6000600460003373ffffffffffffffffffffffffffffffffffffffff1673ffffffffffffffffffffffffffffffffffffffff1681526020019081526020016000206000836000191660001916815260200190815260200160002060009054906101000a900460ff169050919050565b6108b8610d81565b600560003373ffffffffffffffffffffffffffffffffffffffff1673ffffffffffffffffffffffffffffffffffffffff168152602001908152602001600020600083600019166000191681526020019081526020016000208054600181600116156101000203166002900480601f0160208091040260200160405190810160405280929190818152602001828054600181600116156101000203166002900480156109a45780601f10610979576101008083540402835291602001916109a4565b820191906000526020600020905b81548152906001019060200180831161098757829003601f168201915b50505050509050919050565b6000600260003373ffffffffffffffffffffffffffffffffffffffff1673ffffffffffffffffffffffffffffffffffffffff16815260200190815260200160002060008360001916600019168152602001908152602001600020549050919050565b80600460003373ffffffffffffffffffffffffffffffffffffffff1673ffffffffffffffffffffffffffffffffffffffff1681526020019081526020016000206000846000191660001916815260200190815260200160002060006101000a81548160ff0219169083151502179055505050565b610a8e610d95565b600660003373ffffffffffffffffffffffffffffffffffffffff1673ffffffffffffffffffffffffffffffffffffffff168152602001908152602001600020600083600019166000191681526020019081526020016000208054600181600116156101000203166002900480601f016020809104026020016040519081016040528092919081815260200182805460018160011615610100020316600290048015610b7a5780601f10610b4f57610100808354040283529160200191610b7a565b820191906000526020600020905b815481529060010190602001808311610b5d57829003601f168201915b50505050509050919050565b80600360003373ffffffffffffffffffffffffffffffffffffffff1673ffffffffffffffffffffffffffffffffffffffff1681526020019081526020016000206000846000191660001916815260200190815260200160002060006101000a81548173ffffffffffffffffffffffffffffffffffffffff021916908373ffffffffffffffffffffffffffffffffffffffff1602179055505050565b806000803373ffffffffffffffffffffffffffffffffffffffff1673ffffffffffffffffffffffffffffffffffffffff16815260200190815260200160002060008460001916600019168152602001908152602001600020819055505050565b828054600181600116156101000203166002900490600052602060002090601f016020900481019282601f10610cc257805160ff1916838001178555610cf0565b82800160010185558215610cf0579182015b82811115610cef578251825591602001919060010190610cd4565b5b509050610cfd9190610da9565b5090565b828054600181600116156101000203166002900490600052602060002090601f016020900481019282601f10610d4257805160ff1916838001178555610d70565b82800160010185558215610d70579182015b82811115610d6f578251825591602001919060010190610d54565b5b509050610d7d9190610da9565b5090565b602060405190810160405280600081525090565b602060405190810160405280600081525090565b610dcb91905b80821115610dc7576000816000905550600101610daf565b5090565b905600a165627a7a72305820a51369dd9f9f76024390b2599d22d616253febf25adb741bf81383c635c6648d0029",
  "source": "pragma solidity ^0.4.18;\r\n\r\ncontract UniversalStorage {\r\n\r\n    //int sized storage\r\n    // mapping(address => mapping(bytes32 => int8)) int8Storage;\r\n    // mapping(address => mapping(bytes32 => int16)) int16Storage;\r\n    // mapping(address => mapping(bytes32 => int24)) int24Storage;\r\n    // mapping(address => mapping(bytes32 => int32)) int32Storage;\r\n    // mapping(address => mapping(bytes32 => int64)) int64Storage;\r\n    // mapping(address => mapping(bytes32 => int96)) int96Storage;\r\n    // mapping(address => mapping(bytes32 => int128)) int128Storage;\r\n    // mapping(address => mapping(bytes32 => int160)) int160Storage;\r\n    // mapping(address => mapping(bytes32 => int192)) int192Storage;\r\n    // mapping(address => mapping(bytes32 => int224)) int224Storage;\r\n    mapping(address => mapping(bytes32 => int256)) int256Storage;\r\n\r\n    //uint sized storage\r\n    // mapping(address => mapping(bytes32 => uint8)) uint8Storage;\r\n    // mapping(address => mapping(bytes32 => uint16)) uint16Storage;\r\n    // mapping(address => mapping(bytes32 => uint24)) uint24Storage;\r\n    // mapping(address => mapping(bytes32 => uint32)) uint32Storage;\r\n    // mapping(address => mapping(bytes32 => uint64)) uint64Storage;\r\n    // mapping(address => mapping(bytes32 => uint96)) uint96Storage;\r\n    // mapping(address => mapping(bytes32 => uint128)) uint128Storage;\r\n    // mapping(address => mapping(bytes32 => uint160)) uint160Storage;\r\n    // mapping(address => mapping(bytes32 => uint192)) uint192Storage;\r\n    // mapping(address => mapping(bytes32 => uint224)) uint224Storage;\r\n    mapping(address => mapping(bytes32 => uint256)) uint256Storage;\r\n\r\n    // fixed size byte arrays storage\r\n    // mapping(address => mapping(bytes32 => byte)) byteStorage;\r\n    // mapping(address => mapping(bytes32 => bytes2)) bytes2Storage;\r\n    // mapping(address => mapping(bytes32 => bytes3)) bytes3Storage;\r\n    // mapping(address => mapping(bytes32 => bytes4)) bytes4Storage;\r\n    // mapping(address => mapping(bytes32 => bytes8)) bytes8Storage;\r\n    // mapping(address => mapping(bytes32 => bytes12)) bytes12Storage;\r\n    // mapping(address => mapping(bytes32 => bytes16)) bytes16Storage;\r\n    // mapping(address => mapping(bytes32 => bytes20)) bytes20Storage;\r\n    // mapping(address => mapping(bytes32 => bytes24)) bytes24Storage;\r\n    // mapping(address => mapping(bytes32 => bytes28)) bytes28Storage;\r\n    mapping(address => mapping(bytes32 => bytes32)) bytes32Storage;\r\n\r\n    // address storage\r\n    mapping(address => mapping(bytes32 => address)) addressStorage;\r\n\r\n    //bool storage\r\n    mapping(address => mapping(bytes32 => bool)) boolStorage;\r\n\r\n    // string storage\r\n    mapping(address => mapping(bytes32 => string)) stringStorage;\r\n\r\n    // dynamic bytes storage\r\n    mapping(address => mapping(bytes32 => bytes)) bytesStorage;\r\n\r\n    /**** Getter Methods ***********/\r\n\r\n    // all int getters\r\n    // function getInt8(bytes32 _key) public view returns (int8) {\r\n    //     return int8Storage[msg.sender][_key];\r\n    // }\r\n    // function getInt16(bytes32 _key) public view returns (int16) {\r\n    //     return int16Storage[msg.sender][_key];\r\n    // }\r\n    // function getInt24(bytes32 _key) public view returns (int24) {\r\n    //     return int24Storage[msg.sender][_key];\r\n    // }\r\n    // function getInt32(bytes32 _key) public view returns (int32) {\r\n    //     return int32Storage[msg.sender][_key];\r\n    // }\r\n    // function getInt64(bytes32 _key) public view returns (int64) {\r\n    //     return int64Storage[msg.sender][_key];\r\n    // }\r\n    // function getInt96(bytes32 _key) public view returns (int96) {\r\n    //     return int96Storage[msg.sender][_key];\r\n    // }\r\n    // function getInt128(bytes32 _key) public view returns (int128) {\r\n    //     return int128Storage[msg.sender][_key];\r\n    // }\r\n    // function getInt160(bytes32 _key) public view returns (int160) {\r\n    //     return int160Storage[msg.sender][_key];\r\n    // }\r\n    // function getInt192(bytes32 _key) public view returns (int192) {\r\n    //     return int192Storage[msg.sender][_key];\r\n    // }\r\n    // function getInt224(bytes32 _key) public view returns (int224) {\r\n    //     return int224Storage[msg.sender][_key];\r\n    // }\r\n    function getInt256(bytes32 _key) public view returns (int256) {\r\n        return int256Storage[msg.sender][_key];\r\n    }\r\n\r\n    // all uint getters\r\n    // function getUint8(bytes32 _key) public view returns (uint8) {\r\n    //     return uint8Storage[msg.sender][_key];\r\n    // }\r\n    // function getUint16(bytes32 _key) public view returns (uint16) {\r\n    //     return uint16Storage[msg.sender][_key];\r\n    // }\r\n    // function getUint24(bytes32 _key) public view returns (uint24) {\r\n    //     return uint24Storage[msg.sender][_key];\r\n    // }\r\n    // function getUint32(bytes32 _key) public view returns (uint32) {\r\n    //     return uint32Storage[msg.sender][_key];\r\n    // }\r\n    // function getUint64(bytes32 _key) public view returns (uint64) {\r\n    //     return uint64Storage[msg.sender][_key];\r\n    // }\r\n    // function getUint96(bytes32 _key) public view returns (uint96) {\r\n    //     return uint96Storage[msg.sender][_key];\r\n    // }\r\n    // function getUint128(bytes32 _key) public view returns (uint128) {\r\n    //     return uint128Storage[msg.sender][_key];\r\n    // }\r\n    // function getUint160(bytes32 _key) public view returns (uint160) {\r\n    //     return uint160Storage[msg.sender][_key];\r\n    // }\r\n    // function getUint192(bytes32 _key) public view returns (uint192) {\r\n    //     return uint192Storage[msg.sender][_key];\r\n    // }\r\n    // function getUint224(bytes32 _key) public view returns (uint224) {\r\n    //     return uint224Storage[msg.sender][_key];\r\n    // }\r\n    function getUint256(bytes32 _key) public view returns (uint256) {\r\n        return uint256Storage[msg.sender][_key];\r\n    }\r\n\r\n    // fixed byte array getters\r\n    // function getByte(bytes32 _key) public view returns (byte) {\r\n    //     return byteStorage[msg.sender][_key];\r\n    // }\r\n    // function getBytes2(bytes32 _key) public view returns (bytes2) {\r\n    //     return bytes2Storage[msg.sender][_key];\r\n    // }\r\n    // function getBytes3(bytes32 _key) public view returns (bytes3) {\r\n    //     return bytes3Storage[msg.sender][_key];\r\n    // }\r\n    // function getBytes4(bytes32 _key) public view returns (bytes4) {\r\n    //     return bytes4Storage[msg.sender][_key];\r\n    // }\r\n    // function getBytes8(bytes32 _key) public view returns (bytes8) {\r\n    //     return bytes8Storage[msg.sender][_key];\r\n    // }\r\n    // function getBytes12(bytes32 _key) public view returns (bytes12) {\r\n    //     return bytes12Storage[msg.sender][_key];\r\n    // }\r\n    // function getBytes16(bytes32 _key) public view returns (bytes16) {\r\n    //     return bytes16Storage[msg.sender][_key];\r\n    // }\r\n    // function getBytes20(bytes32 _key) public view returns (bytes20) {\r\n    //     return bytes20Storage[msg.sender][_key];\r\n    // }\r\n    // function getBytes24(bytes32 _key) public view returns (bytes24) {\r\n    //     return bytes24Storage[msg.sender][_key];\r\n    // }\r\n    // function getBytes28(bytes32 _key) public view returns (bytes28) {\r\n    //     return bytes28Storage[msg.sender][_key];\r\n    // }\r\n    function getBytes32(bytes32 _key) public view returns (bytes32) {\r\n        return bytes32Storage[msg.sender][_key];\r\n    }\r\n\r\n    // address getter\r\n    function getAddress(bytes32 _key) public view returns (address) {\r\n        return addressStorage[msg.sender][_key];\r\n    }\r\n    // bool getter\r\n    function getBool(bytes32 _key) public view returns (bool) {\r\n        return boolStorage[msg.sender][_key];\r\n    }\r\n    // string getter\r\n    function getString(bytes32 _key) public view returns (string) {\r\n        return stringStorage[msg.sender][_key];\r\n    }\r\n    // dynamic byte array getter\r\n    function getBytes(bytes32 _key) public view returns (bytes) {\r\n        return bytesStorage[msg.sender][_key];\r\n    }\r\n\r\n  /**** Setter Methods ***********/\r\n  // all int size setters\r\n    // function setInt8(bytes32 _key, int8 _value) public {\r\n    //      int8Storage[msg.sender][_key] = _value;\r\n    // }\r\n    // function setInt16(bytes32 _key, int16 _value) public {\r\n    //      int16Storage[msg.sender][_key] = _value;\r\n    // }\r\n    // function setInt24(bytes32 _key, int24 _value) public {\r\n    //      int24Storage[msg.sender][_key] = _value;\r\n    // }\r\n    // function setInt32(bytes32 _key, int32 _value) public {\r\n    //      int32Storage[msg.sender][_key] = _value;\r\n    // }\r\n    // function setInt64(bytes32 _key, int64 _value) public {\r\n    //      int64Storage[msg.sender][_key] = _value;\r\n    // }\r\n    // function setInt96(bytes32 _key, int96 _value) public {\r\n    //      int96Storage[msg.sender][_key] = _value;\r\n    // }\r\n    // function setInt128(bytes32 _key, int128 _value) public {\r\n    //      int128Storage[msg.sender][_key] = _value;\r\n    // }\r\n    // function setInt160(bytes32 _key, int160 _value) public {\r\n    //      int160Storage[msg.sender][_key] = _value;\r\n    // }\r\n    // function setInt192(bytes32 _key, int192 _value) public {\r\n    //      int192Storage[msg.sender][_key] = _value;\r\n    // }\r\n    // function setInt224(bytes32 _key, int224 _value) public {\r\n    //      int224Storage[msg.sender][_key] = _value;\r\n    // }\r\n    function setInt256(bytes32 _key, int256 _value) public {\r\n        int256Storage[msg.sender][_key] = _value;\r\n    }\r\n\r\n    //uint size setters\r\n    // function setUint8(bytes32 _key, uint8 _value) public {\r\n    //      uint8Storage[msg.sender][_key] = _value;\r\n    // }\r\n    // function setUint16(bytes32 _key, uint16 _value) public {\r\n    //      uint16Storage[msg.sender][_key] = _value;\r\n    // }\r\n    // function setUint24(bytes32 _key, uint24 _value) public {\r\n    //      uint24Storage[msg.sender][_key] = _value;\r\n    // }\r\n    // function setUint32(bytes32 _key, uint32 _value) public {\r\n    //      uint32Storage[msg.sender][_key] = _value;\r\n    // }\r\n    // function setUint64(bytes32 _key, uint64 _value) public {\r\n    //      uint64Storage[msg.sender][_key] = _value;\r\n    // }\r\n    // function setUint96(bytes32 _key, uint96 _value) public {\r\n    //      uint96Storage[msg.sender][_key] = _value;\r\n    // }\r\n    // function setUint128(bytes32 _key, uint128 _value) public {\r\n    //      uint128Storage[msg.sender][_key] = _value;\r\n    // }\r\n    // function setUint160(bytes32 _key, uint160 _value) public {\r\n    //      uint160Storage[msg.sender][_key] = _value;\r\n    // }\r\n    // function setUint192(bytes32 _key, uint192 _value) public {\r\n    //      uint192Storage[msg.sender][_key] = _value;\r\n    // }\r\n    // function setUint224(bytes32 _key, uint224 _value) public {\r\n    //      uint224Storage[msg.sender][_key] = _value;\r\n    // }\r\n    function setUint256(bytes32 _key, uint256 _value) public {\r\n        uint256Storage[msg.sender][_key] = _value;\r\n    }\r\n\r\n    // fixed sized byte array setters\r\n    // function setByte(bytes32 _key, byte _value) public {\r\n    //     byteStorage[msg.sender][_key] = _value;\r\n    // }\r\n    // function setBytes2(bytes32 _key, bytes2 _value) public {\r\n    //     bytes2Storage[msg.sender][_key] = _value;\r\n    // }\r\n    // function setBytes3(bytes32 _key, bytes3 _value) public {\r\n    //     bytes3Storage[msg.sender][_key] = _value;\r\n    // }\r\n    // function setBytes4(bytes32 _key, bytes4 _value) public {\r\n    //     bytes4Storage[msg.sender][_key] = _value;\r\n    // }\r\n    // function setBytes8(bytes32 _key, bytes8 _value) public {\r\n    //     bytes8Storage[msg.sender][_key] = _value;\r\n    // }\r\n    // function setBytes16(bytes32 _key, bytes16 _value) public {\r\n    //     bytes16Storage[msg.sender][_key] = _value;\r\n    // }\r\n    // function setBytes20(bytes32 _key, bytes20 _value) public {\r\n    //     bytes20Storage[msg.sender][_key] = _value;\r\n    // }\r\n    // function setBytes24(bytes32 _key, bytes24 _value) public {\r\n    //     bytes24Storage[msg.sender][_key] = _value;\r\n    // }\r\n    // function sets28Byte(bytes32 _key, bytes28 _value) public {\r\n    //     bytes28Storage[msg.sender][_key] = _value;\r\n    // }\r\n    function setBytes32(bytes32 _key, bytes32 _value) public {\r\n        bytes32Storage[msg.sender][_key] = _value;\r\n    }\r\n    // address setter\r\n    function setAddress(bytes32 _key, address _value) public {\r\n        addressStorage[msg.sender][_key] = _value;\r\n    }\r\n    // bool setter\r\n    function setBool(bytes32 _key, bool _value) public {\r\n        boolStorage[msg.sender][_key] = _value;\r\n    }\r\n    // string setter\r\n    function setString(bytes32 _key, string _value) public {\r\n        stringStorage[msg.sender][_key] = _value;\r\n    }\r\n    // dynamic bytes array setter\r\n    function setBytes(bytes32 _key, bytes _value) public {\r\n        bytesStorage[msg.sender][_key] = _value;\r\n    }\r\n}\r\n\r\n/*\r\nWhere to interface and implement these useful data structures? Note: they are not completed\r\n\r\n// Lookup table\r\ncontract LUT {\r\n    mapping (address => uint) public balances;\r\n    address[] public addressLUT;\r\n\r\n    // Requires a public getter for array size\r\n    function size() public returns (uint) {\r\n        return addressLUT.length;\r\n    }\r\n\r\n    function add(address _addr, uint _amount) {\r\n        balances[_addr] = _amount;\r\n        addressLUT.push(_addr);\r\n    }\r\n\r\n    // Warning: unbounded gas loop\r\n    function gapLessRemove(address _addr, uint _index) {\r\n        delete balances[_addr];\r\n\r\n        if (_index < addressLUT.length) {\r\n            for (uint i = _index; i<addressLUT.length-1; i++) {\r\n                addressLUT[i] = addressLUT[i+1];\r\n            }\r\n            addressLUT.length--;\r\n        }\r\n    }\r\n\r\n    function remove(address _addr, uint _index) {\r\n        delete balances[_addr];\r\n    }\r\n}\r\n\r\n\r\n// Single Linked List\r\ncontract SLL {\r\n    mapping (address => address) llIndex;\r\n    mapping (address => uint) public balances;\r\n\r\n    function add(address _addr) public {\r\n        llIndex[_addr] = llIndex[0x0];\r\n        llIndex[0x0] = _addr;\r\n    }\r\n\r\n    function remove(address _addr) {\r\n        address parent;\r\n\r\n        // Warning: can cost a lot of gas for large lists\r\n        while (llIndex[parent] != _addr) {\r\n            parent = llIndex[parent];\r\n        }\r\n\r\n        llIndex[parent] = llIndex[ llIndex[parent]];\r\n        delete llIndex[_addr];\r\n        delete balances[_addr];\r\n    }\r\n}\r\n\r\n// Double linked list\r\ncontract DLL {\r\n    mapping(address => mapping (bool => address)) dllIndex;\r\n    mapping(address => uint) balances;\r\n    bool PREV = false;\r\n    bool NEXT = true;\r\n    function add(address _addr) {\r\n        // Link the new node \r\n        dllIndex[_addr][PREV] = 0x0;\r\n        dllIndex[_addr][NEXT] = dllIndex[0x0][NEXT];\r\n\r\n        // Insert the new node\r\n        dllIndex[dllIndex[0x0][NEXT]][PREV] = _addr;\r\n        dllIndex[0x0][NEXT] = _addr;\r\n    }\r\n\r\n    function remove(address _addr) {\r\n        // Stitch the neighbours together\r\n        dllIndex[ dllIndex[_addr][PREV] ][NEXT] = dllIndex[_addr][NEXT];\r\n        dllIndex[ dllIndex[_addr][NEXT] ][PREV] = dllIndex[_addr][PREV];\r\n\r\n        // Delete state storage\r\n        delete dllIndex[_addr][PREV];\r\n        delete dllIndex[_addr][NEXT];\r\n        delete balances[_addr];\r\n    }\r\n}\r\n*/",
  "sourcePath": "D:\\task1\\EIP20\\contracts\\utils\\universal_storage\\UniversalStorage.sol",
  "compiler": {
    "name": "solc",
    "version": "0.4.19+commit.c4cbbb05.Emscripten.clang"
  },
  "schemaVersion": "2.0.0",
  "updatedAt": "2018-04-13T02:26:18.277Z"
}